{
  "_format": "hh-sol-artifact-1",
  "contractName": "LandRegistration",
  "sourceName": "contracts/LandRegistration.sol",
  "abi": [
    {
      "inputs": [],
      "stateMutability": "nonpayable",
      "type": "constructor"
    },
    {
      "anonymous": false,
      "inputs": [
        {
          "indexed": true,
          "internalType": "uint256",
          "name": "_landId",
          "type": "uint256"
        }
      ],
      "name": "AddingLand",
      "type": "event"
    },
    {
      "anonymous": false,
      "inputs": [
        {
          "indexed": false,
          "internalType": "address",
          "name": "_userAddress",
          "type": "address"
        }
      ],
      "name": "LandRequested",
      "type": "event"
    },
    {
      "anonymous": false,
      "inputs": [
        {
          "indexed": false,
          "internalType": "address",
          "name": "_registrationId",
          "type": "address"
        }
      ],
      "name": "Registration",
      "type": "event"
    },
    {
      "anonymous": false,
      "inputs": [
        {
          "indexed": false,
          "internalType": "address",
          "name": "_id",
          "type": "address"
        }
      ],
      "name": "Rejected",
      "type": "event"
    },
    {
      "anonymous": false,
      "inputs": [
        {
          "indexed": false,
          "internalType": "address",
          "name": "_id",
          "type": "address"
        }
      ],
      "name": "Verified",
      "type": "event"
    },
    {
      "anonymous": false,
      "inputs": [
        {
          "indexed": false,
          "internalType": "address",
          "name": "_userAddress",
          "type": "address"
        }
      ],
      "name": "requestApproved",
      "type": "event"
    },
    {
      "inputs": [
        {
          "internalType": "uint256",
          "name": "",
          "type": "uint256"
        }
      ],
      "name": "Inspectors",
      "outputs": [
        {
          "internalType": "uint256",
          "name": "id",
          "type": "uint256"
        },
        {
          "internalType": "string",
          "name": "name",
          "type": "string"
        },
        {
          "internalType": "uint256",
          "name": "age",
          "type": "uint256"
        },
        {
          "internalType": "string",
          "name": "designation",
          "type": "string"
        }
      ],
      "stateMutability": "view",
      "type": "function"
    },
    {
      "inputs": [
        {
          "internalType": "uint256",
          "name": "",
          "type": "uint256"
        }
      ],
      "name": "LandOwner",
      "outputs": [
        {
          "internalType": "address",
          "name": "",
          "type": "address"
        }
      ],
      "stateMutability": "view",
      "type": "function"
    },
    {
      "inputs": [
        {
          "internalType": "uint256",
          "name": "land_id",
          "type": "uint256"
        },
        {
          "internalType": "address",
          "name": "newOwner",
          "type": "address"
        }
      ],
      "name": "LandOwnershipTransfer",
      "outputs": [],
      "stateMutability": "nonpayable",
      "type": "function"
    },
    {
      "inputs": [
        {
          "internalType": "uint256",
          "name": "",
          "type": "uint256"
        }
      ],
      "name": "LandVerification",
      "outputs": [
        {
          "internalType": "bool",
          "name": "",
          "type": "bool"
        }
      ],
      "stateMutability": "view",
      "type": "function"
    },
    {
      "inputs": [],
      "name": "Land_Inspector",
      "outputs": [
        {
          "internalType": "address",
          "name": "",
          "type": "address"
        }
      ],
      "stateMutability": "view",
      "type": "function"
    },
    {
      "inputs": [
        {
          "internalType": "uint256",
          "name": "",
          "type": "uint256"
        }
      ],
      "name": "PaymentReceived",
      "outputs": [
        {
          "internalType": "bool",
          "name": "",
          "type": "bool"
        }
      ],
      "stateMutability": "view",
      "type": "function"
    },
    {
      "inputs": [
        {
          "internalType": "address",
          "name": "",
          "type": "address"
        }
      ],
      "name": "RegisteredAddressMapping",
      "outputs": [
        {
          "internalType": "bool",
          "name": "",
          "type": "bool"
        }
      ],
      "stateMutability": "view",
      "type": "function"
    },
    {
      "inputs": [
        {
          "internalType": "address",
          "name": "",
          "type": "address"
        }
      ],
      "name": "RegisteredUserMapping",
      "outputs": [
        {
          "internalType": "bool",
          "name": "",
          "type": "bool"
        }
      ],
      "stateMutability": "view",
      "type": "function"
    },
    {
      "inputs": [
        {
          "internalType": "uint256",
          "name": "",
          "type": "uint256"
        }
      ],
      "name": "RequestMapping",
      "outputs": [
        {
          "internalType": "uint256",
          "name": "requestId",
          "type": "uint256"
        },
        {
          "internalType": "address",
          "name": "buyerAddress",
          "type": "address"
        },
        {
          "internalType": "address",
          "name": "sellerAddress",
          "type": "address"
        },
        {
          "internalType": "uint256",
          "name": "landId",
          "type": "uint256"
        }
      ],
      "stateMutability": "view",
      "type": "function"
    },
    {
      "inputs": [
        {
          "internalType": "uint256",
          "name": "",
          "type": "uint256"
        }
      ],
      "name": "RequestStatus",
      "outputs": [
        {
          "internalType": "bool",
          "name": "",
          "type": "bool"
        }
      ],
      "stateMutability": "view",
      "type": "function"
    },
    {
      "inputs": [
        {
          "internalType": "uint256",
          "name": "",
          "type": "uint256"
        }
      ],
      "name": "RequestedLand",
      "outputs": [
        {
          "internalType": "bool",
          "name": "",
          "type": "bool"
        }
      ],
      "stateMutability": "view",
      "type": "function"
    },
    {
      "inputs": [
        {
          "internalType": "address",
          "name": "",
          "type": "address"
        }
      ],
      "name": "UserRejection",
      "outputs": [
        {
          "internalType": "bool",
          "name": "",
          "type": "bool"
        }
      ],
      "stateMutability": "view",
      "type": "function"
    },
    {
      "inputs": [
        {
          "internalType": "address",
          "name": "",
          "type": "address"
        }
      ],
      "name": "UserVerification",
      "outputs": [
        {
          "internalType": "bool",
          "name": "",
          "type": "bool"
        }
      ],
      "stateMutability": "view",
      "type": "function"
    },
    {
      "inputs": [
        {
          "internalType": "uint256",
          "name": "_area",
          "type": "uint256"
        },
        {
          "internalType": "string",
          "name": "_city",
          "type": "string"
        },
        {
          "internalType": "string",
          "name": "_pradesh",
          "type": "string"
        },
        {
          "internalType": "uint256",
          "name": "_propertyId",
          "type": "uint256"
        },
        {
          "internalType": "string",
          "name": "_document",
          "type": "string"
        }
      ],
      "name": "addLand",
      "outputs": [],
      "stateMutability": "nonpayable",
      "type": "function"
    },
    {
      "inputs": [
        {
          "internalType": "string",
          "name": "_name",
          "type": "string"
        },
        {
          "internalType": "uint256",
          "name": "_age",
          "type": "uint256"
        },
        {
          "internalType": "string",
          "name": "_city",
          "type": "string"
        },
        {
          "internalType": "string",
          "name": "_citizenshipNumber",
          "type": "string"
        },
        {
          "internalType": "string",
          "name": "_email",
          "type": "string"
        },
        {
          "internalType": "string",
          "name": "_document",
          "type": "string"
        }
      ],
      "name": "addUser",
      "outputs": [],
      "stateMutability": "nonpayable",
      "type": "function"
    },
    {
      "inputs": [
        {
          "internalType": "uint256",
          "name": "_requestId",
          "type": "uint256"
        }
      ],
      "name": "approveRequest",
      "outputs": [],
      "stateMutability": "nonpayable",
      "type": "function"
    },
    {
      "inputs": [],
      "name": "getCurrentUserDetails",
      "outputs": [
        {
          "internalType": "string",
          "name": "",
          "type": "string"
        },
        {
          "internalType": "uint256",
          "name": "",
          "type": "uint256"
        },
        {
          "internalType": "string",
          "name": "",
          "type": "string"
        },
        {
          "internalType": "string",
          "name": "",
          "type": "string"
        },
        {
          "internalType": "string",
          "name": "",
          "type": "string"
        },
        {
          "internalType": "string",
          "name": "",
          "type": "string"
        },
        {
          "internalType": "uint256[]",
          "name": "",
          "type": "uint256[]"
        },
        {
          "internalType": "bool",
          "name": "",
          "type": "bool"
        }
      ],
      "stateMutability": "view",
      "type": "function"
    },
    {
      "inputs": [
        {
          "internalType": "uint256",
          "name": "_landId",
          "type": "uint256"
        }
      ],
      "name": "getLandDetails",
      "outputs": [
        {
          "internalType": "uint256",
          "name": "",
          "type": "uint256"
        },
        {
          "internalType": "uint256",
          "name": "",
          "type": "uint256"
        },
        {
          "internalType": "string",
          "name": "",
          "type": "string"
        },
        {
          "internalType": "string",
          "name": "",
          "type": "string"
        },
        {
          "internalType": "uint256",
          "name": "",
          "type": "uint256"
        },
        {
          "internalType": "string",
          "name": "",
          "type": "string"
        }
      ],
      "stateMutability": "view",
      "type": "function"
    },
    {
      "inputs": [
        {
          "internalType": "uint256",
          "name": "id",
          "type": "uint256"
        }
      ],
      "name": "getLandOwner",
      "outputs": [
        {
          "internalType": "address",
          "name": "",
          "type": "address"
        }
      ],
      "stateMutability": "view",
      "type": "function"
    },
    {
      "inputs": [],
      "name": "getLands",
      "outputs": [
        {
          "components": [
            {
              "internalType": "uint256",
              "name": "landId",
              "type": "uint256"
            },
            {
              "internalType": "uint256",
              "name": "area",
              "type": "uint256"
            },
            {
              "internalType": "string",
              "name": "city",
              "type": "string"
            },
            {
              "internalType": "string",
              "name": "pradesh",
              "type": "string"
            },
            {
              "internalType": "uint256",
              "name": "propertyId",
              "type": "uint256"
            },
            {
              "internalType": "string",
              "name": "document",
              "type": "string"
            }
          ],
          "internalType": "struct LandRegistration.LandDetails[]",
          "name": "",
          "type": "tuple[]"
        }
      ],
      "stateMutability": "view",
      "type": "function"
    },
    {
      "inputs": [],
      "name": "getLandsCount",
      "outputs": [
        {
          "internalType": "uint256",
          "name": "",
          "type": "uint256"
        }
      ],
      "stateMutability": "view",
      "type": "function"
    },
    {
      "inputs": [],
      "name": "getRequestsCount",
      "outputs": [
        {
          "internalType": "uint256",
          "name": "",
          "type": "uint256"
        }
      ],
      "stateMutability": "view",
      "type": "function"
    },
    {
      "inputs": [],
      "name": "getUser",
      "outputs": [
        {
          "internalType": "address[]",
          "name": "",
          "type": "address[]"
        }
      ],
      "stateMutability": "view",
      "type": "function"
    },
    {
      "inputs": [
        {
          "internalType": "address",
          "name": "i",
          "type": "address"
        }
      ],
      "name": "getUserDetails",
      "outputs": [
        {
          "internalType": "string",
          "name": "",
          "type": "string"
        },
        {
          "internalType": "uint256",
          "name": "",
          "type": "uint256"
        },
        {
          "internalType": "string",
          "name": "",
          "type": "string"
        },
        {
          "internalType": "string",
          "name": "",
          "type": "string"
        },
        {
          "internalType": "string",
          "name": "",
          "type": "string"
        },
        {
          "internalType": "string",
          "name": "",
          "type": "string"
        },
        {
          "internalType": "bool",
          "name": "",
          "type": "bool"
        }
      ],
      "stateMutability": "view",
      "type": "function"
    },
    {
      "inputs": [],
      "name": "getUsersCount",
      "outputs": [
        {
          "internalType": "uint256",
          "name": "",
          "type": "uint256"
        }
      ],
      "stateMutability": "view",
      "type": "function"
    },
    {
      "inputs": [
        {
          "internalType": "uint256",
          "name": "id",
          "type": "uint256"
        }
      ],
      "name": "isApproved",
      "outputs": [
        {
          "internalType": "bool",
          "name": "",
          "type": "bool"
        }
      ],
      "stateMutability": "view",
      "type": "function"
    },
    {
      "inputs": [
        {
          "internalType": "address",
          "name": "_id",
          "type": "address"
        }
      ],
      "name": "isLandInspector",
      "outputs": [
        {
          "internalType": "bool",
          "name": "",
          "type": "bool"
        }
      ],
      "stateMutability": "view",
      "type": "function"
    },
    {
      "inputs": [
        {
          "internalType": "uint256",
          "name": "_id",
          "type": "uint256"
        }
      ],
      "name": "isLandVerified",
      "outputs": [
        {
          "internalType": "bool",
          "name": "",
          "type": "bool"
        }
      ],
      "stateMutability": "view",
      "type": "function"
    },
    {
      "inputs": [
        {
          "internalType": "uint256",
          "name": "_landId",
          "type": "uint256"
        }
      ],
      "name": "isPaid",
      "outputs": [
        {
          "internalType": "bool",
          "name": "",
          "type": "bool"
        }
      ],
      "stateMutability": "view",
      "type": "function"
    },
    {
      "inputs": [
        {
          "internalType": "address",
          "name": "i",
          "type": "address"
        }
      ],
      "name": "isRegistered",
      "outputs": [
        {
          "internalType": "bool",
          "name": "",
          "type": "bool"
        }
      ],
      "stateMutability": "view",
      "type": "function"
    },
    {
      "inputs": [
        {
          "internalType": "address",
          "name": "id",
          "type": "address"
        }
      ],
      "name": "isRejected",
      "outputs": [
        {
          "internalType": "bool",
          "name": "",
          "type": "bool"
        }
      ],
      "stateMutability": "view",
      "type": "function"
    },
    {
      "inputs": [
        {
          "internalType": "uint256",
          "name": "id",
          "type": "uint256"
        }
      ],
      "name": "isRequested",
      "outputs": [
        {
          "internalType": "bool",
          "name": "",
          "type": "bool"
        }
      ],
      "stateMutability": "view",
      "type": "function"
    },
    {
      "inputs": [
        {
          "internalType": "address",
          "name": "_id",
          "type": "address"
        }
      ],
      "name": "isUser",
      "outputs": [
        {
          "internalType": "bool",
          "name": "",
          "type": "bool"
        }
      ],
      "stateMutability": "view",
      "type": "function"
    },
    {
      "inputs": [
        {
          "internalType": "address",
          "name": "_id",
          "type": "address"
        }
      ],
      "name": "isVerified",
      "outputs": [
        {
          "internalType": "bool",
          "name": "",
          "type": "bool"
        }
      ],
      "stateMutability": "view",
      "type": "function"
    },
    {
      "inputs": [],
      "name": "landCount",
      "outputs": [
        {
          "internalType": "uint256",
          "name": "",
          "type": "uint256"
        }
      ],
      "stateMutability": "view",
      "type": "function"
    },
    {
      "inputs": [
        {
          "internalType": "address",
          "name": "",
          "type": "address"
        },
        {
          "internalType": "uint256",
          "name": "",
          "type": "uint256"
        }
      ],
      "name": "landOwners",
      "outputs": [
        {
          "internalType": "uint256",
          "name": "landId",
          "type": "uint256"
        },
        {
          "internalType": "uint256",
          "name": "area",
          "type": "uint256"
        },
        {
          "internalType": "string",
          "name": "city",
          "type": "string"
        },
        {
          "internalType": "string",
          "name": "pradesh",
          "type": "string"
        },
        {
          "internalType": "uint256",
          "name": "propertyId",
          "type": "uint256"
        },
        {
          "internalType": "string",
          "name": "document",
          "type": "string"
        }
      ],
      "stateMutability": "view",
      "type": "function"
    },
    {
      "inputs": [
        {
          "internalType": "uint256",
          "name": "",
          "type": "uint256"
        }
      ],
      "name": "lands",
      "outputs": [
        {
          "internalType": "uint256",
          "name": "landId",
          "type": "uint256"
        },
        {
          "internalType": "uint256",
          "name": "area",
          "type": "uint256"
        },
        {
          "internalType": "string",
          "name": "city",
          "type": "string"
        },
        {
          "internalType": "string",
          "name": "pradesh",
          "type": "string"
        },
        {
          "internalType": "uint256",
          "name": "propertyId",
          "type": "uint256"
        },
        {
          "internalType": "string",
          "name": "document",
          "type": "string"
        }
      ],
      "stateMutability": "view",
      "type": "function"
    },
    {
      "inputs": [
        {
          "internalType": "address payable",
          "name": "_receiver",
          "type": "address"
        },
        {
          "internalType": "uint256",
          "name": "_landId",
          "type": "uint256"
        }
      ],
      "name": "payment",
      "outputs": [],
      "stateMutability": "payable",
      "type": "function"
    },
    {
      "inputs": [
        {
          "internalType": "address",
          "name": "_userAddress",
          "type": "address"
        }
      ],
      "name": "rejectUser",
      "outputs": [],
      "stateMutability": "nonpayable",
      "type": "function"
    },
    {
      "inputs": [
        {
          "internalType": "uint256",
          "name": "i",
          "type": "uint256"
        }
      ],
      "name": "requestDetails",
      "outputs": [
        {
          "internalType": "address",
          "name": "",
          "type": "address"
        },
        {
          "internalType": "address",
          "name": "",
          "type": "address"
        },
        {
          "internalType": "uint256",
          "name": "",
          "type": "uint256"
        },
        {
          "internalType": "bool",
          "name": "",
          "type": "bool"
        }
      ],
      "stateMutability": "view",
      "type": "function"
    },
    {
      "inputs": [
        {
          "internalType": "address",
          "name": "_sellerAddress",
          "type": "address"
        },
        {
          "internalType": "uint256",
          "name": "_landId",
          "type": "uint256"
        }
      ],
      "name": "requestLand",
      "outputs": [],
      "stateMutability": "nonpayable",
      "type": "function"
    },
    {
      "inputs": [],
      "name": "requestsCount",
      "outputs": [
        {
          "internalType": "uint256",
          "name": "",
          "type": "uint256"
        }
      ],
      "stateMutability": "view",
      "type": "function"
    },
    {
      "inputs": [
        {
          "internalType": "string",
          "name": "_name",
          "type": "string"
        },
        {
          "internalType": "uint256",
          "name": "_age",
          "type": "uint256"
        },
        {
          "internalType": "string",
          "name": "_city",
          "type": "string"
        },
        {
          "internalType": "string",
          "name": "_citizenshipNumber",
          "type": "string"
        },
        {
          "internalType": "string",
          "name": "_email",
          "type": "string"
        },
        {
          "internalType": "string",
          "name": "_document",
          "type": "string"
        }
      ],
      "name": "updateUser",
      "outputs": [],
      "stateMutability": "nonpayable",
      "type": "function"
    },
    {
      "inputs": [
        {
          "internalType": "uint256",
          "name": "",
          "type": "uint256"
        }
      ],
      "name": "users",
      "outputs": [
        {
          "internalType": "address",
          "name": "",
          "type": "address"
        }
      ],
      "stateMutability": "view",
      "type": "function"
    },
    {
      "inputs": [],
      "name": "usersCount",
      "outputs": [
        {
          "internalType": "uint256",
          "name": "",
          "type": "uint256"
        }
      ],
      "stateMutability": "view",
      "type": "function"
    },
    {
      "inputs": [
        {
          "internalType": "address",
          "name": "",
          "type": "address"
        }
      ],
      "name": "usersMapping",
      "outputs": [
        {
          "internalType": "address",
          "name": "id",
          "type": "address"
        },
        {
          "internalType": "string",
          "name": "name",
          "type": "string"
        },
        {
          "internalType": "uint256",
          "name": "age",
          "type": "uint256"
        },
        {
          "internalType": "string",
          "name": "city",
          "type": "string"
        },
        {
          "internalType": "string",
          "name": "citizenshipNumber",
          "type": "string"
        },
        {
          "internalType": "string",
          "name": "email",
          "type": "string"
        },
        {
          "internalType": "string",
          "name": "document",
          "type": "string"
        },
        {
          "internalType": "bool",
          "name": "exist",
          "type": "bool"
        }
      ],
      "stateMutability": "view",
      "type": "function"
    },
    {
      "inputs": [
        {
          "internalType": "uint256",
          "name": "_landId",
          "type": "uint256"
        }
      ],
      "name": "verifyLand",
      "outputs": [],
      "stateMutability": "nonpayable",
      "type": "function"
    },
    {
      "inputs": [
        {
          "internalType": "address",
          "name": "_userAddress",
          "type": "address"
        }
      ],
      "name": "verifyUser",
      "outputs": [],
      "stateMutability": "nonpayable",
      "type": "function"
    },
    {
      "inputs": [],
      "name": "viewLandRegistrator",
      "outputs": [
        {
          "internalType": "address",
          "name": "",
          "type": "address"
        },
        {
          "internalType": "uint256",
          "name": "",
          "type": "uint256"
        },
        {
          "internalType": "string",
          "name": "",
          "type": "string"
        },
        {
          "internalType": "uint256",
          "name": "",
          "type": "uint256"
        },
        {
          "internalType": "string",
          "name": "",
          "type": "string"
        }
      ],
      "stateMutability": "view",
      "type": "function"
    }
  ],
  "bytecode": "0x60806040523480156200001157600080fd5b5033600e60006101000a81548173ffffffffffffffffffffffffffffffffffffffff021916908373ffffffffffffffffffffffffffffffffffffffff160217905550620000d16040518060400160405280600981526020017f496e73706563746f720000000000000000000000000000000000000000000000815250602d6040518060400160405280600581526020017f61646d696e000000000000000000000000000000000000000000000000000000815250620000d760201b60201c565b620004b9565b60405180608001604052806001815260200184815260200183815260200182815250600160008081526020019081526020016000206000820151816000015560208201518160010190816200012d9190620003d2565b506040820151816002015560608201518160030190816200014f9190620003d2565b50905050505050565b600081519050919050565b7f4e487b7100000000000000000000000000000000000000000000000000000000600052604160045260246000fd5b7f4e487b7100000000000000000000000000000000000000000000000000000000600052602260045260246000fd5b60006002820490506001821680620001da57607f821691505b602082108103620001f057620001ef62000192565b5b50919050565b60008190508160005260206000209050919050565b60006020601f8301049050919050565b600082821b905092915050565b6000600883026200025a7fffffffffffffffffffffffffffffffffffffffffffffffffffffffffffffffff826200021b565b6200026686836200021b565b95508019841693508086168417925050509392505050565b6000819050919050565b6000819050919050565b6000620002b3620002ad620002a7846200027e565b62000288565b6200027e565b9050919050565b6000819050919050565b620002cf8362000292565b620002e7620002de82620002ba565b84845462000228565b825550505050565b600090565b620002fe620002ef565b6200030b818484620002c4565b505050565b5b81811015620003335762000327600082620002f4565b60018101905062000311565b5050565b601f82111562000382576200034c81620001f6565b62000357846200020b565b8101602085101562000367578190505b6200037f62000376856200020b565b83018262000310565b50505b505050565b600082821c905092915050565b6000620003a76000198460080262000387565b1980831691505092915050565b6000620003c2838362000394565b9150826002028217905092915050565b620003dd8262000158565b67ffffffffffffffff811115620003f957620003f862000163565b5b620004058254620001c1565b6200041282828562000337565b600060209050601f8311600181146200044a576000841562000435578287015190505b620004418582620003b4565b865550620004b1565b601f1984166200045a86620001f6565b60005b8281101562000484578489015182556001820191506020850194506020810190506200045d565b86831015620004a45784890151620004a0601f89168262000394565b8355505b6001600288020188555050505b505050505050565b614c9680620004c96000396000f3fe6080604052600436106102ae5760003560e01c806392817a0f11610175578063d7d1bbdb116100dc578063f03bc43711610095578063f7940bab1161006f578063f7940bab14610c1f578063f9c43bdf14610c5f578063fbfa4b7f14610c88578063fe0cb7dc14610cb3576102ae565b8063f03bc43714610b77578063f3f0c21814610bb9578063f58f85b514610be2576102ae565b8063d7d1bbdb14610a3d578063de14b4fc14610a66578063debdf28e14610aa6578063df78815514610acf578063e165af8714610af8578063e261f1e514610b35576102ae565b8063bed403c71161012e578063bed403c7146108ec578063c2ba131614610915578063c3c5a54714610955578063cc3d967b14610992578063cd392a83146109d5578063d7bce65814610a12576102ae565b806392817a0f1461079e5780639dc1bfa9146107cd578063a3d911e11461080a578063a4a1e26314610847578063ac8afa8f14610872578063b9209e33146108af576102ae565b806348ab214a116102195780636fe0c906116101d25780636fe0c9061461065f5780637910867b1461068a578063832880e7146106c757806383546501146106f257806384c68ea91461072f57806389d2135414610761576102ae565b806348ab214a146105455780634d813120146105895780634dc92885146105b257806367a09c23146105db5780636ba13a82146105f75780636cbf6cf814610622576102ae565b806321ed64311161026b57806321ed6431146103e957806332f2bb14146104265780633410452a14610463578063365b98b21461048e5780634209fff1146104cb57806348a46bd314610508576102ae565b8063155fec72146102b357806316d9d666146102f0578063170f39091461031b5780631869a38b146103465780631a07f76e14610383578063205b9504146103c0575b600080fd5b3480156102bf57600080fd5b506102da60048036038101906102d59190613b2e565b610cf5565b6040516102e79190613b76565b60405180910390f35b3480156102fc57600080fd5b50610305610d2c565b6040516103129190613ba0565b60405180910390f35b34801561032757600080fd5b50610330610d36565b60405161033d9190613bfc565b60405180910390f35b34801561035257600080fd5b5061036d60048036038101906103689190613b2e565b610d5c565b60405161037a9190613bfc565b60405180910390f35b34801561038f57600080fd5b506103aa60048036038101906103a59190613b2e565b610d99565b6040516103b79190613b76565b60405180910390f35b3480156103cc57600080fd5b506103e760048036038101906103e29190613d5d565b610db9565b005b3480156103f557600080fd5b50610410600480360381019061040b9190613ea2565b611087565b60405161041d9190613b76565b60405180910390f35b34801561043257600080fd5b5061044d60048036038101906104489190613ea2565b6110a7565b60405161045a9190613b76565b60405180910390f35b34801561046f57600080fd5b506104786110c7565b6040516104859190613ba0565b60405180910390f35b34801561049a57600080fd5b506104b560048036038101906104b09190613b2e565b6110d1565b6040516104c29190613bfc565b60405180910390f35b3480156104d757600080fd5b506104f260048036038101906104ed9190613ea2565b611110565b6040516104ff9190613b76565b60405180910390f35b34801561051457600080fd5b5061052f600480360381019061052a9190613ea2565b611173565b60405161053c9190613b76565b60405180910390f35b34801561055157600080fd5b5061056c60048036038101906105679190613ea2565b6111d6565b604051610580989796959493929190613f4e565b60405180910390f35b34801561059557600080fd5b506105b060048036038101906105ab9190613ea2565b6114f3565b005b3480156105be57600080fd5b506105d960048036038101906105d49190613ea2565b611597565b005b6105f560048036038101906105f0919061402d565b61163b565b005b34801561060357600080fd5b5061060c6116b2565b6040516106199190613ba0565b60405180910390f35b34801561062e57600080fd5b5061064960048036038101906106449190613b2e565b6116b8565b6040516106569190613b76565b60405180910390f35b34801561066b57600080fd5b506106746116ef565b604051610681919061421f565b60405180910390f35b34801561069657600080fd5b506106b160048036038101906106ac9190613b2e565b61195f565b6040516106be9190613b76565b60405180910390f35b3480156106d357600080fd5b506106dc611996565b6040516106e991906142ff565b60405180910390f35b3480156106fe57600080fd5b5061071960048036038101906107149190613b2e565b611a24565b6040516107269190613b76565b60405180910390f35b34801561073b57600080fd5b50610744611a44565b6040516107589897969594939291906143d0565b60405180910390f35b34801561076d57600080fd5b5061078860048036038101906107839190613b2e565b611f99565b6040516107959190613b76565b60405180910390f35b3480156107aa57600080fd5b506107b3611fb9565b6040516107c4959493929190614478565b60405180910390f35b3480156107d957600080fd5b506107f460048036038101906107ef9190613b2e565b612168565b6040516108019190613bfc565b60405180910390f35b34801561081657600080fd5b50610831600480360381019061082c9190613b2e565b61219b565b60405161083e9190613b76565b60405180910390f35b34801561085357600080fd5b5061085c6121bb565b6040516108699190613ba0565b60405180910390f35b34801561087e57600080fd5b5061089960048036038101906108949190613ea2565b6121c5565b6040516108a69190613b76565b60405180910390f35b3480156108bb57600080fd5b506108d660048036038101906108d19190613ea2565b6121e5565b6040516108e39190613b76565b60405180910390f35b3480156108f857600080fd5b50610913600480360381019061090e91906144d9565b612248565b005b34801561092157600080fd5b5061093c60048036038101906109379190613b2e565b6123c2565b60405161094c9493929190614519565b60405180910390f35b34801561096157600080fd5b5061097c60048036038101906109779190613ea2565b61247d565b6040516109899190613b76565b60405180910390f35b34801561099e57600080fd5b506109b960048036038101906109b49190613ea2565b6124e0565b6040516109cc979695949392919061455e565b60405180910390f35b3480156109e157600080fd5b506109fc60048036038101906109f79190613b2e565b61299e565b604051610a099190613b76565b60405180910390f35b348015610a1e57600080fd5b50610a276129d5565b604051610a349190613ba0565b60405180910390f35b348015610a4957600080fd5b50610a646004803603810190610a5f9190613b2e565b6129db565b005b348015610a7257600080fd5b50610a8d6004803603810190610a889190613b2e565b612a2d565b604051610a9d94939291906145f0565b60405180910390f35b348015610ab257600080fd5b50610acd6004803603810190610ac89190614643565b612b6d565b005b348015610adb57600080fd5b50610af66004803603810190610af19190613d5d565b612db3565b005b348015610b0457600080fd5b50610b1f6004803603810190610b1a9190613ea2565b613155565b604051610b2c9190613b76565b60405180910390f35b348015610b4157600080fd5b50610b5c6004803603810190610b579190613b2e565b6131bf565b604051610b6e96959493929190614712565b60405180910390f35b348015610b8357600080fd5b50610b9e6004803603810190610b999190614788565b613393565b604051610bb096959493929190614712565b60405180910390f35b348015610bc557600080fd5b50610be06004803603810190610bdb9190614788565b613584565b005b348015610bee57600080fd5b50610c096004803603810190610c049190613ea2565b61375f565b604051610c169190613b76565b60405180910390f35b348015610c2b57600080fd5b50610c466004803603810190610c419190613b2e565b61377f565b604051610c5694939291906147c8565b60405180910390f35b348015610c6b57600080fd5b50610c866004803603810190610c819190613b2e565b6137ef565b005b348015610c9457600080fd5b50610c9d613830565b604051610caa9190613ba0565b60405180910390f35b348015610cbf57600080fd5b50610cda6004803603810190610cd59190613b2e565b613836565b604051610cec96959493929190614712565b60405180910390f35b6000600c600083815260200190815260200160002060009054906101000a900460ff1615610d265760019050610d27565b5b919050565b6000601054905090565b600e60009054906101000a900473ffffffffffffffffffffffffffffffffffffffff1681565b60006003600083815260200190815260200160002060009054906101000a900473ffffffffffffffffffffffffffffffffffffffff169050919050565b600d6020528060005260406000206000915054906101000a900460ff1681565b600a60003373ffffffffffffffffffffffffffffffffffffffff1673ffffffffffffffffffffffffffffffffffffffff16815260200190815260200160002060009054906101000a900460ff168015610e9f57503373ffffffffffffffffffffffffffffffffffffffff16600260003373ffffffffffffffffffffffffffffffffffffffff1673ffffffffffffffffffffffffffffffffffffffff16815260200190815260200160002060000160009054906101000a900473ffffffffffffffffffffffffffffffffffffffff1673ffffffffffffffffffffffffffffffffffffffff16145b610ea857600080fd5b85600260003373ffffffffffffffffffffffffffffffffffffffff1673ffffffffffffffffffffffffffffffffffffffff1681526020019081526020016000206001019081610ef79190614a19565b5084600260003373ffffffffffffffffffffffffffffffffffffffff1673ffffffffffffffffffffffffffffffffffffffff1681526020019081526020016000206002018190555083600260003373ffffffffffffffffffffffffffffffffffffffff1673ffffffffffffffffffffffffffffffffffffffff1681526020019081526020016000206003019081610f8e9190614a19565b5082600260003373ffffffffffffffffffffffffffffffffffffffff1673ffffffffffffffffffffffffffffffffffffffff1681526020019081526020016000206004019081610fde9190614a19565b5081600260003373ffffffffffffffffffffffffffffffffffffffff1673ffffffffffffffffffffffffffffffffffffffff168152602001908152602001600020600501908161102e9190614a19565b5080600260003373ffffffffffffffffffffffffffffffffffffffff1673ffffffffffffffffffffffffffffffffffffffff168152602001908152602001600020600601908161107e9190614a19565b50505050505050565b60066020528060005260406000206000915054906101000a900460ff1681565b60096020528060005260406000206000915054906101000a900460ff1681565b6000601254905090565b600f81815481106110e157600080fd5b906000526020600020016000915054906101000a900473ffffffffffffffffffffffffffffffffffffffff1681565b6000600960008373ffffffffffffffffffffffffffffffffffffffff1673ffffffffffffffffffffffffffffffffffffffff16815260200190815260200160002060009054906101000a900460ff161561116d576001905061116e565b5b919050565b6000600760008373ffffffffffffffffffffffffffffffffffffffff1673ffffffffffffffffffffffffffffffffffffffff16815260200190815260200160002060009054906101000a900460ff16156111d057600190506111d1565b5b919050565b60026020528060005260406000206000915090508060000160009054906101000a900473ffffffffffffffffffffffffffffffffffffffff169080600101805461121f9061483c565b80601f016020809104026020016040519081016040528092919081815260200182805461124b9061483c565b80156112985780601f1061126d57610100808354040283529160200191611298565b820191906000526020600020905b81548152906001019060200180831161127b57829003601f168201915b5050505050908060020154908060030180546112b39061483c565b80601f01602080910402602001604051908101604052809291908181526020018280546112df9061483c565b801561132c5780601f106113015761010080835404028352916020019161132c565b820191906000526020600020905b81548152906001019060200180831161130f57829003601f168201915b5050505050908060040180546113419061483c565b80601f016020809104026020016040519081016040528092919081815260200182805461136d9061483c565b80156113ba5780601f1061138f576101008083540402835291602001916113ba565b820191906000526020600020905b81548152906001019060200180831161139d57829003601f168201915b5050505050908060050180546113cf9061483c565b80601f01602080910402602001604051908101604052809291908181526020018280546113fb9061483c565b80156114485780601f1061141d57610100808354040283529160200191611448565b820191906000526020600020905b81548152906001019060200180831161142b57829003601f168201915b50505050509080600601805461145d9061483c565b80601f01602080910402602001604051908101604052809291908181526020018280546114899061483c565b80156114d65780601f106114ab576101008083540402835291602001916114d6565b820191906000526020600020905b8154815290600101906020018083116114b957829003601f168201915b5050505050908060080160009054906101000a900460ff16905088565b6114fc33613155565b61150557600080fd5b6001600660008373ffffffffffffffffffffffffffffffffffffffff1673ffffffffffffffffffffffffffffffffffffffff16815260200190815260200160002060006101000a81548160ff0219169083151502179055507f6a6455914f452787eb3985452aceedc1000fb545e394eb3b370e3d08958e0a5b8160405161158c9190613bfc565b60405180910390a150565b6115a033613155565b6115a957600080fd5b6001600760008373ffffffffffffffffffffffffffffffffffffffff1673ffffffffffffffffffffffffffffffffffffffff16815260200190815260200160002060006101000a81548160ff0219169083151502179055507faf77f8960cf590e245ec8b6d41c193a5dcacad8986ae4eb57ac9e5be7b6af031816040516116309190613bfc565b60405180910390a150565b6001600d600083815260200190815260200160002060006101000a81548160ff0219169083151502179055508173ffffffffffffffffffffffffffffffffffffffff166108fc349081150290604051600060405180830381858888f193505050501580156116ad573d6000803e3d6000fd5b505050565b60115481565b60006008600083815260200190815260200160002060009054906101000a900460ff16156116e957600190506116ea565b5b919050565b6060600560003373ffffffffffffffffffffffffffffffffffffffff1673ffffffffffffffffffffffffffffffffffffffff168152602001908152602001600020805480602002602001604051908101604052809291908181526020016000905b8282101561195657838290600052602060002090600602016040518060c001604052908160008201548152602001600182015481526020016002820180546117979061483c565b80601f01602080910402602001604051908101604052809291908181526020018280546117c39061483c565b80156118105780601f106117e557610100808354040283529160200191611810565b820191906000526020600020905b8154815290600101906020018083116117f357829003601f168201915b505050505081526020016003820180546118299061483c565b80601f01602080910402602001604051908101604052809291908181526020018280546118559061483c565b80156118a25780601f10611877576101008083540402835291602001916118a2565b820191906000526020600020905b81548152906001019060200180831161188557829003601f168201915b50505050508152602001600482015481526020016005820180546118c59061483c565b80601f01602080910402602001604051908101604052809291908181526020018280546118f19061483c565b801561193e5780601f106119135761010080835404028352916020019161193e565b820191906000526020600020905b81548152906001019060200180831161192157829003601f168201915b50505050508152505081526020019060010190611750565b50505050905090565b6000600b600083815260200190815260200160002060009054906101000a900460ff16156119905760019050611991565b5b919050565b6060600f805480602002602001604051908101604052809291908181526020018280548015611a1a57602002820191906000526020600020905b8160009054906101000a900473ffffffffffffffffffffffffffffffffffffffff1673ffffffffffffffffffffffffffffffffffffffff16815260200190600101908083116119d0575b5050505050905090565b60086020528060005260406000206000915054906101000a900460ff1681565b6060600060608060608060606000600260003373ffffffffffffffffffffffffffffffffffffffff1673ffffffffffffffffffffffffffffffffffffffff168152602001908152602001600020600101600260003373ffffffffffffffffffffffffffffffffffffffff1673ffffffffffffffffffffffffffffffffffffffff16815260200190815260200160002060020154600260003373ffffffffffffffffffffffffffffffffffffffff1673ffffffffffffffffffffffffffffffffffffffff168152602001908152602001600020600301600260003373ffffffffffffffffffffffffffffffffffffffff1673ffffffffffffffffffffffffffffffffffffffff168152602001908152602001600020600401600260003373ffffffffffffffffffffffffffffffffffffffff1673ffffffffffffffffffffffffffffffffffffffff168152602001908152602001600020600501600260003373ffffffffffffffffffffffffffffffffffffffff1673ffffffffffffffffffffffffffffffffffffffff168152602001908152602001600020600601600260003373ffffffffffffffffffffffffffffffffffffffff1673ffffffffffffffffffffffffffffffffffffffff168152602001908152602001600020600701600260003373ffffffffffffffffffffffffffffffffffffffff1673ffffffffffffffffffffffffffffffffffffffff16815260200190815260200160002060080160009054906101000a900460ff16878054611c7d9061483c565b80601f0160208091040260200160405190810160405280929190818152602001828054611ca99061483c565b8015611cf65780601f10611ccb57610100808354040283529160200191611cf6565b820191906000526020600020905b815481529060010190602001808311611cd957829003601f168201915b50505050509750858054611d099061483c565b80601f0160208091040260200160405190810160405280929190818152602001828054611d359061483c565b8015611d825780601f10611d5757610100808354040283529160200191611d82565b820191906000526020600020905b815481529060010190602001808311611d6557829003601f168201915b50505050509550848054611d959061483c565b80601f0160208091040260200160405190810160405280929190818152602001828054611dc19061483c565b8015611e0e5780601f10611de357610100808354040283529160200191611e0e565b820191906000526020600020905b815481529060010190602001808311611df157829003601f168201915b50505050509450838054611e219061483c565b80601f0160208091040260200160405190810160405280929190818152602001828054611e4d9061483c565b8015611e9a5780601f10611e6f57610100808354040283529160200191611e9a565b820191906000526020600020905b815481529060010190602001808311611e7d57829003601f168201915b50505050509350828054611ead9061483c565b80601f0160208091040260200160405190810160405280929190818152602001828054611ed99061483c565b8015611f265780601f10611efb57610100808354040283529160200191611f26565b820191906000526020600020905b815481529060010190602001808311611f0957829003601f168201915b5050505050925081805480602002602001604051908101604052809291908181526020018280548015611f7857602002820191906000526020600020905b815481526020019060010190808311611f64575b50505050509150975097509750975097509750975097509091929394959697565b600b6020528060005260406000206000915054906101000a900460ff1681565b600080606060006060600e60009054906101000a900473ffffffffffffffffffffffffffffffffffffffff1660016000808152602001908152602001600020600001546001600080815260200190815260200160002060010160016000808152602001908152602001600020600201546001600080815260200190815260200160002060030182805461204b9061483c565b80601f01602080910402602001604051908101604052809291908181526020018280546120779061483c565b80156120c45780601f10612099576101008083540402835291602001916120c4565b820191906000526020600020905b8154815290600101906020018083116120a757829003601f168201915b505050505092508080546120d79061483c565b80601f01602080910402602001604051908101604052809291908181526020018280546121039061483c565b80156121505780601f1061212557610100808354040283529160200191612150565b820191906000526020600020905b81548152906001019060200180831161213357829003601f168201915b50505050509050945094509450945094509091929394565b60036020528060005260406000206000915054906101000a900473ffffffffffffffffffffffffffffffffffffffff1681565b600c6020528060005260406000206000915054906101000a900460ff1681565b6000601154905090565b60076020528060005260406000206000915054906101000a900460ff1681565b6000600660008373ffffffffffffffffffffffffffffffffffffffff1673ffffffffffffffffffffffffffffffffffffffff16815260200190815260200160002060009054906101000a900460ff16156122425760019050612243565b5b919050565b61225133613155565b61225a57600080fd5b60006003600084815260200190815260200160002060009054906101000a900473ffffffffffffffffffffffffffffffffffffffff169050816003600085815260200190815260200160002060006101000a81548173ffffffffffffffffffffffffffffffffffffffff021916908373ffffffffffffffffffffffffffffffffffffffff160217905550600560008373ffffffffffffffffffffffffffffffffffffffff1673ffffffffffffffffffffffffffffffffffffffff16815260200190815260200160002060008085815260200190815260200160002090806001815401808255809150506001900390600052602060002090600602016000909190919091506000820154816000015560018201548160010155600282018160020190816123869190614b01565b506003820181600301908161239b9190614b01565b5060048201548160040155600582018160050190816123ba9190614b01565b505050505050565b6000806000806004600086815260200190815260200160002060020160009054906101000a900473ffffffffffffffffffffffffffffffffffffffff166004600087815260200190815260200160002060010160009054906101000a900473ffffffffffffffffffffffffffffffffffffffff166004600088815260200190815260200160002060030154600b600089815260200190815260200160002060009054906101000a900460ff1693509350935093509193509193565b6000600960008373ffffffffffffffffffffffffffffffffffffffff1673ffffffffffffffffffffffffffffffffffffffff16815260200190815260200160002060009054906101000a900460ff16156124da57600190506124db565b5b919050565b606060006060806060806000600260008973ffffffffffffffffffffffffffffffffffffffff1673ffffffffffffffffffffffffffffffffffffffff168152602001908152602001600020600101600260008a73ffffffffffffffffffffffffffffffffffffffff1673ffffffffffffffffffffffffffffffffffffffff16815260200190815260200160002060020154600260008b73ffffffffffffffffffffffffffffffffffffffff1673ffffffffffffffffffffffffffffffffffffffff168152602001908152602001600020600301600260008c73ffffffffffffffffffffffffffffffffffffffff1673ffffffffffffffffffffffffffffffffffffffff168152602001908152602001600020600401600260008d73ffffffffffffffffffffffffffffffffffffffff1673ffffffffffffffffffffffffffffffffffffffff168152602001908152602001600020600501600260008e73ffffffffffffffffffffffffffffffffffffffff1673ffffffffffffffffffffffffffffffffffffffff168152602001908152602001600020600601600260008f73ffffffffffffffffffffffffffffffffffffffff1673ffffffffffffffffffffffffffffffffffffffff16815260200190815260200160002060080160009054906101000a900460ff168680546126d59061483c565b80601f01602080910402602001604051908101604052809291908181526020018280546127019061483c565b801561274e5780601f106127235761010080835404028352916020019161274e565b820191906000526020600020905b81548152906001019060200180831161273157829003601f168201915b505050505096508480546127619061483c565b80601f016020809104026020016040519081016040528092919081815260200182805461278d9061483c565b80156127da5780601f106127af576101008083540402835291602001916127da565b820191906000526020600020905b8154815290600101906020018083116127bd57829003601f168201915b505050505094508380546127ed9061483c565b80601f01602080910402602001604051908101604052809291908181526020018280546128199061483c565b80156128665780601f1061283b57610100808354040283529160200191612866565b820191906000526020600020905b81548152906001019060200180831161284957829003601f168201915b505050505093508280546128799061483c565b80601f01602080910402602001604051908101604052809291908181526020018280546128a59061483c565b80156128f25780601f106128c7576101008083540402835291602001916128f2565b820191906000526020600020905b8154815290600101906020018083116128d557829003601f168201915b505050505092508180546129059061483c565b80601f01602080910402602001604051908101604052809291908181526020018280546129319061483c565b801561297e5780601f106129535761010080835404028352916020019161297e565b820191906000526020600020905b81548152906001019060200180831161296157829003601f168201915b505050505091509650965096509650965096509650919395979092949650565b6000600d600083815260200190815260200160002060009054906101000a900460ff16156129cf57600190506129d0565b5b919050565b60105481565b6129e433611110565b80156129f557506129f4336121e5565b5b6129fe57600080fd5b6001600b600083815260200190815260200160002060006101000a81548160ff02191690831515021790555050565b6001602052806000526040600020600091509050806000015490806001018054612a569061483c565b80601f0160208091040260200160405190810160405280929190818152602001828054612a829061483c565b8015612acf5780601f10612aa457610100808354040283529160200191612acf565b820191906000526020600020905b815481529060010190602001808311612ab257829003601f168201915b505050505090806002015490806003018054612aea9061483c565b80601f0160208091040260200160405190810160405280929190818152602001828054612b169061483c565b8015612b635780601f10612b3857610100808354040283529160200191612b63565b820191906000526020600020905b815481529060010190602001808311612b4657829003601f168201915b5050505050905084565b612b7633611110565b8015612b875750612b86336121e5565b5b612b9057600080fd5b60106000815480929190612ba390614c18565b91905055506040518060c00160405280601054815260200186815260200185815260200184815260200183815260200182815250600080601054815260200190815260200160002060008201518160000155602082015181600101556040820151816002019081612c149190614a19565b506060820151816003019081612c2a9190614a19565b506080820151816004015560a0820151816005019081612c4a9190614a19565b509050503360036000601054815260200190815260200160002060006101000a81548173ffffffffffffffffffffffffffffffffffffffff021916908373ffffffffffffffffffffffffffffffffffffffff160217905550600560003373ffffffffffffffffffffffffffffffffffffffff1673ffffffffffffffffffffffffffffffffffffffff16815260200190815260200160002060008060105481526020019081526020016000209080600181540180825580915050600190039060005260206000209060060201600090919091909150600082015481600001556001820154816001015560028201816002019081612d469190614b01565b5060038201816003019081612d5b9190614b01565b506004820154816004015560058201816005019081612d7a9190614b01565b5050506010547f1683494da6843132b363282b9c61279cdc5f214c099a31557fc4d0eaad2f4d2960405160405180910390a25050505050565b600a60003373ffffffffffffffffffffffffffffffffffffffff1673ffffffffffffffffffffffffffffffffffffffff16815260200190815260200160002060009054906101000a900460ff1615612e0a57600080fd5b6001600a60003373ffffffffffffffffffffffffffffffffffffffff1673ffffffffffffffffffffffffffffffffffffffff16815260200190815260200160002060006101000a81548160ff0219169083151502179055506001600960003373ffffffffffffffffffffffffffffffffffffffff1673ffffffffffffffffffffffffffffffffffffffff16815260200190815260200160002060006101000a81548160ff02191690831515021790555060116000815480929190612ecd90614c18565b91905055506040518061012001604052803373ffffffffffffffffffffffffffffffffffffffff168152602001878152602001868152602001858152602001848152602001838152602001828152602001600067ffffffffffffffff811115612f3957612f38613c32565b5b604051908082528060200260200182016040528015612f675781602001602082028036833780820191505090505b50815260200160011515815250600260003373ffffffffffffffffffffffffffffffffffffffff1673ffffffffffffffffffffffffffffffffffffffff16815260200190815260200160002060008201518160000160006101000a81548173ffffffffffffffffffffffffffffffffffffffff021916908373ffffffffffffffffffffffffffffffffffffffff160217905550602082015181600101908161300f9190614a19565b5060408201518160020155606082015181600301908161302f9190614a19565b5060808201518160040190816130459190614a19565b5060a082015181600501908161305b9190614a19565b5060c08201518160060190816130719190614a19565b5060e082015181600701908051906020019061308e929190613a7a565b506101008201518160080160006101000a81548160ff021916908315150217905550905050600f339080600181540180825580915050600190039060005260206000200160009091909190916101000a81548173ffffffffffffffffffffffffffffffffffffffff021916908373ffffffffffffffffffffffffffffffffffffffff1602179055507f478f5152d8fc568db3f8de9fb402fd9d98a1a7541ecfe434e59cf574fbfc5524336040516131459190613bfc565b60405180910390a1505050505050565b60008173ffffffffffffffffffffffffffffffffffffffff16600e60009054906101000a900473ffffffffffffffffffffffffffffffffffffffff1673ffffffffffffffffffffffffffffffffffffffff16036131b557600190506131ba565b600090505b919050565b60006020528060005260406000206000915090508060000154908060010154908060020180546131ee9061483c565b80601f016020809104026020016040519081016040528092919081815260200182805461321a9061483c565b80156132675780601f1061323c57610100808354040283529160200191613267565b820191906000526020600020905b81548152906001019060200180831161324a57829003601f168201915b50505050509080600301805461327c9061483c565b80601f01602080910402602001604051908101604052809291908181526020018280546132a89061483c565b80156132f55780601f106132ca576101008083540402835291602001916132f5565b820191906000526020600020905b8154815290600101906020018083116132d857829003601f168201915b5050505050908060040154908060050180546133109061483c565b80601f016020809104026020016040519081016040528092919081815260200182805461333c9061483c565b80156133895780601f1061335e57610100808354040283529160200191613389565b820191906000526020600020905b81548152906001019060200180831161336c57829003601f168201915b5050505050905086565b600560205281600052604060002081815481106133af57600080fd5b9060005260206000209060060201600091509150508060000154908060010154908060020180546133df9061483c565b80601f016020809104026020016040519081016040528092919081815260200182805461340b9061483c565b80156134585780601f1061342d57610100808354040283529160200191613458565b820191906000526020600020905b81548152906001019060200180831161343b57829003601f168201915b50505050509080600301805461346d9061483c565b80601f01602080910402602001604051908101604052809291908181526020018280546134999061483c565b80156134e65780601f106134bb576101008083540402835291602001916134e6565b820191906000526020600020905b8154815290600101906020018083116134c957829003601f168201915b5050505050908060040154908060050180546135019061483c565b80601f016020809104026020016040519081016040528092919081815260200182805461352d9061483c565b801561357a5780601f1061354f5761010080835404028352916020019161357a565b820191906000526020600020905b81548152906001019060200180831161355d57829003601f168201915b5050505050905086565b61358d33611110565b801561359e575061359d336121e5565b5b6135a757600080fd5b601260008154809291906135ba90614c18565b9190505550604051806080016040528060125481526020013373ffffffffffffffffffffffffffffffffffffffff1681526020018373ffffffffffffffffffffffffffffffffffffffff168152602001828152506004600060125481526020019081526020016000206000820151816000015560208201518160010160006101000a81548173ffffffffffffffffffffffffffffffffffffffff021916908373ffffffffffffffffffffffffffffffffffffffff16021790555060408201518160020160006101000a81548173ffffffffffffffffffffffffffffffffffffffff021916908373ffffffffffffffffffffffffffffffffffffffff160217905550606082015181600301559050506000600b6000601254815260200190815260200160002060006101000a81548160ff0219169083151502179055506001600c6000601254815260200190815260200160002060006101000a81548160ff0219169083151502179055507f226be41bcaf9760851410ade1cd6450b48b6b4d0adc46c61ea33b5a37b41bad7826040516137539190613bfc565b60405180910390a15050565b600a6020528060005260406000206000915054906101000a900460ff1681565b60046020528060005260406000206000915090508060000154908060010160009054906101000a900473ffffffffffffffffffffffffffffffffffffffff16908060020160009054906101000a900473ffffffffffffffffffffffffffffffffffffffff16908060030154905084565b6137f833613155565b61380157600080fd5b60016008600083815260200190815260200160002060006101000a81548160ff02191690831515021790555050565b60125481565b6000806060806000606060008088815260200190815260200160002060000154600080898152602001908152602001600020600101546000808a81526020019081526020016000206002016000808b81526020019081526020016000206003016000808c8152602001908152602001600020600401546000808d81526020019081526020016000206005018380546138cd9061483c565b80601f01602080910402602001604051908101604052809291908181526020018280546138f99061483c565b80156139465780601f1061391b57610100808354040283529160200191613946565b820191906000526020600020905b81548152906001019060200180831161392957829003601f168201915b505050505093508280546139599061483c565b80601f01602080910402602001604051908101604052809291908181526020018280546139859061483c565b80156139d25780601f106139a7576101008083540402835291602001916139d2565b820191906000526020600020905b8154815290600101906020018083116139b557829003601f168201915b505050505092508080546139e59061483c565b80601f0160208091040260200160405190810160405280929190818152602001828054613a119061483c565b8015613a5e5780601f10613a3357610100808354040283529160200191613a5e565b820191906000526020600020905b815481529060010190602001808311613a4157829003601f168201915b5050505050905095509550955095509550955091939550919395565b828054828255906000526020600020908101928215613ab6579160200282015b82811115613ab5578251825591602001919060010190613a9a565b5b509050613ac39190613ac7565b5090565b5b80821115613ae0576000816000905550600101613ac8565b5090565b6000604051905090565b600080fd5b600080fd5b6000819050919050565b613b0b81613af8565b8114613b1657600080fd5b50565b600081359050613b2881613b02565b92915050565b600060208284031215613b4457613b43613aee565b5b6000613b5284828501613b19565b91505092915050565b60008115159050919050565b613b7081613b5b565b82525050565b6000602082019050613b8b6000830184613b67565b92915050565b613b9a81613af8565b82525050565b6000602082019050613bb56000830184613b91565b92915050565b600073ffffffffffffffffffffffffffffffffffffffff82169050919050565b6000613be682613bbb565b9050919050565b613bf681613bdb565b82525050565b6000602082019050613c116000830184613bed565b92915050565b600080fd5b600080fd5b6000601f19601f8301169050919050565b7f4e487b7100000000000000000000000000000000000000000000000000000000600052604160045260246000fd5b613c6a82613c21565b810181811067ffffffffffffffff82111715613c8957613c88613c32565b5b80604052505050565b6000613c9c613ae4565b9050613ca88282613c61565b919050565b600067ffffffffffffffff821115613cc857613cc7613c32565b5b613cd182613c21565b9050602081019050919050565b82818337600083830152505050565b6000613d00613cfb84613cad565b613c92565b905082815260208101848484011115613d1c57613d1b613c1c565b5b613d27848285613cde565b509392505050565b600082601f830112613d4457613d43613c17565b5b8135613d54848260208601613ced565b91505092915050565b60008060008060008060c08789031215613d7a57613d79613aee565b5b600087013567ffffffffffffffff811115613d9857613d97613af3565b5b613da489828a01613d2f565b9650506020613db589828a01613b19565b955050604087013567ffffffffffffffff811115613dd657613dd5613af3565b5b613de289828a01613d2f565b945050606087013567ffffffffffffffff811115613e0357613e02613af3565b5b613e0f89828a01613d2f565b935050608087013567ffffffffffffffff811115613e3057613e2f613af3565b5b613e3c89828a01613d2f565b92505060a087013567ffffffffffffffff811115613e5d57613e5c613af3565b5b613e6989828a01613d2f565b9150509295509295509295565b613e7f81613bdb565b8114613e8a57600080fd5b50565b600081359050613e9c81613e76565b92915050565b600060208284031215613eb857613eb7613aee565b5b6000613ec684828501613e8d565b91505092915050565b600081519050919050565b600082825260208201905092915050565b60005b83811015613f09578082015181840152602081019050613eee565b60008484015250505050565b6000613f2082613ecf565b613f2a8185613eda565b9350613f3a818560208601613eeb565b613f4381613c21565b840191505092915050565b600061010082019050613f64600083018b613bed565b8181036020830152613f76818a613f15565b9050613f856040830189613b91565b8181036060830152613f978188613f15565b90508181036080830152613fab8187613f15565b905081810360a0830152613fbf8186613f15565b905081810360c0830152613fd38185613f15565b9050613fe260e0830184613b67565b9998505050505050505050565b6000613ffa82613bbb565b9050919050565b61400a81613fef565b811461401557600080fd5b50565b60008135905061402781614001565b92915050565b6000806040838503121561404457614043613aee565b5b600061405285828601614018565b925050602061406385828601613b19565b9150509250929050565b600081519050919050565b600082825260208201905092915050565b6000819050602082019050919050565b6140a281613af8565b82525050565b600082825260208201905092915050565b60006140c482613ecf565b6140ce81856140a8565b93506140de818560208601613eeb565b6140e781613c21565b840191505092915050565b600060c08301600083015161410a6000860182614099565b50602083015161411d6020860182614099565b506040830151848203604086015261413582826140b9565b9150506060830151848203606086015261414f82826140b9565b91505060808301516141646080860182614099565b5060a083015184820360a086015261417c82826140b9565b9150508091505092915050565b600061419583836140f2565b905092915050565b6000602082019050919050565b60006141b58261406d565b6141bf8185614078565b9350836020820285016141d185614089565b8060005b8581101561420d57848403895281516141ee8582614189565b94506141f98361419d565b925060208a019950506001810190506141d5565b50829750879550505050505092915050565b6000602082019050818103600083015261423981846141aa565b905092915050565b600081519050919050565b600082825260208201905092915050565b6000819050602082019050919050565b61427681613bdb565b82525050565b6000614288838361426d565b60208301905092915050565b6000602082019050919050565b60006142ac82614241565b6142b6818561424c565b93506142c18361425d565b8060005b838110156142f25781516142d9888261427c565b97506142e483614294565b9250506001810190506142c5565b5085935050505092915050565b6000602082019050818103600083015261431981846142a1565b905092915050565b600081519050919050565b600082825260208201905092915050565b6000819050602082019050919050565b60006143598383614099565b60208301905092915050565b6000602082019050919050565b600061437d82614321565b614387818561432c565b93506143928361433d565b8060005b838110156143c35781516143aa888261434d565b97506143b583614365565b925050600181019050614396565b5085935050505092915050565b60006101008201905081810360008301526143eb818b613f15565b90506143fa602083018a613b91565b818103604083015261440c8189613f15565b905081810360608301526144208188613f15565b905081810360808301526144348187613f15565b905081810360a08301526144488186613f15565b905081810360c083015261445c8185614372565b905061446b60e0830184613b67565b9998505050505050505050565b600060a08201905061448d6000830188613bed565b61449a6020830187613b91565b81810360408301526144ac8186613f15565b90506144bb6060830185613b91565b81810360808301526144cd8184613f15565b90509695505050505050565b600080604083850312156144f0576144ef613aee565b5b60006144fe85828601613b19565b925050602061450f85828601613e8d565b9150509250929050565b600060808201905061452e6000830187613bed565b61453b6020830186613bed565b6145486040830185613b91565b6145556060830184613b67565b95945050505050565b600060e0820190508181036000830152614578818a613f15565b90506145876020830189613b91565b81810360408301526145998188613f15565b905081810360608301526145ad8187613f15565b905081810360808301526145c18186613f15565b905081810360a08301526145d58185613f15565b90506145e460c0830184613b67565b98975050505050505050565b60006080820190506146056000830187613b91565b81810360208301526146178186613f15565b90506146266040830185613b91565b81810360608301526146388184613f15565b905095945050505050565b600080600080600060a0868803121561465f5761465e613aee565b5b600061466d88828901613b19565b955050602086013567ffffffffffffffff81111561468e5761468d613af3565b5b61469a88828901613d2f565b945050604086013567ffffffffffffffff8111156146bb576146ba613af3565b5b6146c788828901613d2f565b93505060606146d888828901613b19565b925050608086013567ffffffffffffffff8111156146f9576146f8613af3565b5b61470588828901613d2f565b9150509295509295909350565b600060c0820190506147276000830189613b91565b6147346020830188613b91565b81810360408301526147468187613f15565b9050818103606083015261475a8186613f15565b90506147696080830185613b91565b81810360a083015261477b8184613f15565b9050979650505050505050565b6000806040838503121561479f5761479e613aee565b5b60006147ad85828601613e8d565b92505060206147be85828601613b19565b9150509250929050565b60006080820190506147dd6000830187613b91565b6147ea6020830186613bed565b6147f76040830185613bed565b6148046060830184613b91565b95945050505050565b7f4e487b7100000000000000000000000000000000000000000000000000000000600052602260045260246000fd5b6000600282049050600182168061485457607f821691505b6020821081036148675761486661480d565b5b50919050565b60008190508160005260206000209050919050565b60006020601f8301049050919050565b600082821b905092915050565b6000600883026148cf7fffffffffffffffffffffffffffffffffffffffffffffffffffffffffffffffff82614892565b6148d98683614892565b95508019841693508086168417925050509392505050565b6000819050919050565b600061491661491161490c84613af8565b6148f1565b613af8565b9050919050565b6000819050919050565b614930836148fb565b61494461493c8261491d565b84845461489f565b825550505050565b600090565b61495961494c565b614964818484614927565b505050565b5b818110156149885761497d600082614951565b60018101905061496a565b5050565b601f8211156149cd5761499e8161486d565b6149a784614882565b810160208510156149b6578190505b6149ca6149c285614882565b830182614969565b50505b505050565b600082821c905092915050565b60006149f0600019846008026149d2565b1980831691505092915050565b6000614a0983836149df565b9150826002028217905092915050565b614a2282613ecf565b67ffffffffffffffff811115614a3b57614a3a613c32565b5b614a45825461483c565b614a5082828561498c565b600060209050601f831160018114614a835760008415614a71578287015190505b614a7b85826149fd565b865550614ae3565b601f198416614a918661486d565b60005b82811015614ab957848901518255600182019150602085019450602081019050614a94565b86831015614ad65784890151614ad2601f8916826149df565b8355505b6001600288020188555050505b505050505050565b600081549050614afa8161483c565b9050919050565b818103614b0f575050614be7565b614b1882614aeb565b67ffffffffffffffff811115614b3157614b30613c32565b5b614b3b825461483c565b614b4682828561498c565b6000601f831160018114614b755760008415614b63578287015490505b614b6d85826149fd565b865550614be0565b601f198416614b838761486d565b9650614b8e8661486d565b60005b82811015614bb657848901548255600182019150600185019450602081019050614b91565b86831015614bd35784890154614bcf601f8916826149df565b8355505b6001600288020188555050505b5050505050505b565b7f4e487b7100000000000000000000000000000000000000000000000000000000600052601160045260246000fd5b6000614c2382613af8565b91507fffffffffffffffffffffffffffffffffffffffffffffffffffffffffffffffff8203614c5557614c54614be9565b5b60018201905091905056fea26469706673582212205d9f57f41565745d8920a2a718dec9ddcb55db5fd498a3ef995ccc2e895c3d6964736f6c63430008120033",
  "linkReferences": {},
  "deployedLinkReferences": {}
}