{
  "_format": "hh-sol-artifact-1",
  "contractName": "LandRegistration",
  "sourceName": "contracts/LandRegistration.sol",
  "abi": [
    {
      "inputs": [],
      "stateMutability": "nonpayable",
      "type": "constructor"
    },
    {
      "anonymous": false,
      "inputs": [
        {
          "indexed": true,
          "internalType": "uint256",
          "name": "_landId",
          "type": "uint256"
        }
      ],
      "name": "AddingLand",
      "type": "event"
    },
    {
      "anonymous": false,
      "inputs": [
        {
          "indexed": false,
          "internalType": "address",
          "name": "_userAddress",
          "type": "address"
        }
      ],
      "name": "LandRequested",
      "type": "event"
    },
    {
      "anonymous": false,
      "inputs": [
        {
          "indexed": false,
          "internalType": "address",
          "name": "_registrationId",
          "type": "address"
        }
      ],
      "name": "Registration",
      "type": "event"
    },
    {
      "anonymous": false,
      "inputs": [
        {
          "indexed": false,
          "internalType": "address",
          "name": "_id",
          "type": "address"
        }
      ],
      "name": "Rejected",
      "type": "event"
    },
    {
      "anonymous": false,
      "inputs": [
        {
          "indexed": false,
          "internalType": "address",
          "name": "_id",
          "type": "address"
        }
      ],
      "name": "Verified",
      "type": "event"
    },
    {
      "anonymous": false,
      "inputs": [
        {
          "indexed": false,
          "internalType": "address",
          "name": "_userAddress",
          "type": "address"
        }
      ],
      "name": "requestApproved",
      "type": "event"
    },
    {
      "inputs": [
        {
          "internalType": "uint256",
          "name": "",
          "type": "uint256"
        }
      ],
      "name": "Inspectors",
      "outputs": [
        {
          "internalType": "uint256",
          "name": "id",
          "type": "uint256"
        },
        {
          "internalType": "string",
          "name": "name",
          "type": "string"
        },
        {
          "internalType": "uint256",
          "name": "age",
          "type": "uint256"
        },
        {
          "internalType": "string",
          "name": "designation",
          "type": "string"
        }
      ],
      "stateMutability": "view",
      "type": "function"
    },
    {
      "inputs": [
        {
          "internalType": "uint256",
          "name": "",
          "type": "uint256"
        }
      ],
      "name": "LandOwner",
      "outputs": [
        {
          "internalType": "address",
          "name": "",
          "type": "address"
        }
      ],
      "stateMutability": "view",
      "type": "function"
    },
    {
      "inputs": [
        {
          "internalType": "uint256",
          "name": "land_id",
          "type": "uint256"
        },
        {
          "internalType": "address",
          "name": "newOwner",
          "type": "address"
        }
      ],
      "name": "LandOwnershipTransfer",
      "outputs": [],
      "stateMutability": "nonpayable",
      "type": "function"
    },
    {
      "inputs": [
        {
          "internalType": "uint256",
          "name": "",
          "type": "uint256"
        }
      ],
      "name": "LandVerification",
      "outputs": [
        {
          "internalType": "bool",
          "name": "",
          "type": "bool"
        }
      ],
      "stateMutability": "view",
      "type": "function"
    },
    {
      "inputs": [],
      "name": "Land_Inspector",
      "outputs": [
        {
          "internalType": "address",
          "name": "",
          "type": "address"
        }
      ],
      "stateMutability": "view",
      "type": "function"
    },
    {
      "inputs": [
        {
          "internalType": "uint256",
          "name": "",
          "type": "uint256"
        }
      ],
      "name": "PaymentReceived",
      "outputs": [
        {
          "internalType": "bool",
          "name": "",
          "type": "bool"
        }
      ],
      "stateMutability": "view",
      "type": "function"
    },
    {
      "inputs": [
        {
          "internalType": "address",
          "name": "",
          "type": "address"
        }
      ],
      "name": "RegisteredAddressMapping",
      "outputs": [
        {
          "internalType": "bool",
          "name": "",
          "type": "bool"
        }
      ],
      "stateMutability": "view",
      "type": "function"
    },
    {
      "inputs": [
        {
          "internalType": "address",
          "name": "",
          "type": "address"
        }
      ],
      "name": "RegisteredUserMapping",
      "outputs": [
        {
          "internalType": "bool",
          "name": "",
          "type": "bool"
        }
      ],
      "stateMutability": "view",
      "type": "function"
    },
    {
      "inputs": [
        {
          "internalType": "uint256",
          "name": "",
          "type": "uint256"
        }
      ],
      "name": "RequestMapping",
      "outputs": [
        {
          "internalType": "uint256",
          "name": "requestId",
          "type": "uint256"
        },
        {
          "internalType": "address",
          "name": "buyerAddress",
          "type": "address"
        },
        {
          "internalType": "address",
          "name": "sellerAddress",
          "type": "address"
        },
        {
          "internalType": "uint256",
          "name": "landId",
          "type": "uint256"
        }
      ],
      "stateMutability": "view",
      "type": "function"
    },
    {
      "inputs": [
        {
          "internalType": "uint256",
          "name": "",
          "type": "uint256"
        }
      ],
      "name": "RequestStatus",
      "outputs": [
        {
          "internalType": "bool",
          "name": "",
          "type": "bool"
        }
      ],
      "stateMutability": "view",
      "type": "function"
    },
    {
      "inputs": [
        {
          "internalType": "uint256",
          "name": "",
          "type": "uint256"
        }
      ],
      "name": "RequestedLand",
      "outputs": [
        {
          "internalType": "bool",
          "name": "",
          "type": "bool"
        }
      ],
      "stateMutability": "view",
      "type": "function"
    },
    {
      "inputs": [
        {
          "internalType": "uint256",
          "name": "",
          "type": "uint256"
        }
      ],
      "name": "TransferStatus",
      "outputs": [
        {
          "internalType": "bool",
          "name": "",
          "type": "bool"
        }
      ],
      "stateMutability": "view",
      "type": "function"
    },
    {
      "inputs": [
        {
          "internalType": "address",
          "name": "",
          "type": "address"
        }
      ],
      "name": "UserRejection",
      "outputs": [
        {
          "internalType": "bool",
          "name": "",
          "type": "bool"
        }
      ],
      "stateMutability": "view",
      "type": "function"
    },
    {
      "inputs": [
        {
          "internalType": "address",
          "name": "",
          "type": "address"
        }
      ],
      "name": "UserVerification",
      "outputs": [
        {
          "internalType": "bool",
          "name": "",
          "type": "bool"
        }
      ],
      "stateMutability": "view",
      "type": "function"
    },
    {
      "inputs": [
        {
          "internalType": "uint256",
          "name": "_area",
          "type": "uint256"
        },
        {
          "internalType": "string",
          "name": "_city",
          "type": "string"
        },
        {
          "internalType": "string",
          "name": "_pradesh",
          "type": "string"
        },
        {
          "internalType": "uint256",
          "name": "_propertyId",
          "type": "uint256"
        },
        {
          "internalType": "string",
          "name": "_document",
          "type": "string"
        }
      ],
      "name": "addLand",
      "outputs": [],
      "stateMutability": "nonpayable",
      "type": "function"
    },
    {
      "inputs": [
        {
          "internalType": "string",
          "name": "_name",
          "type": "string"
        },
        {
          "internalType": "uint256",
          "name": "_age",
          "type": "uint256"
        },
        {
          "internalType": "string",
          "name": "_city",
          "type": "string"
        },
        {
          "internalType": "string",
          "name": "_citizenshipNumber",
          "type": "string"
        },
        {
          "internalType": "string",
          "name": "_email",
          "type": "string"
        },
        {
          "internalType": "string",
          "name": "_document",
          "type": "string"
        }
      ],
      "name": "addUser",
      "outputs": [],
      "stateMutability": "nonpayable",
      "type": "function"
    },
    {
      "inputs": [
        {
          "internalType": "uint256",
          "name": "_requestId",
          "type": "uint256"
        }
      ],
      "name": "approveRequest",
      "outputs": [],
      "stateMutability": "nonpayable",
      "type": "function"
    },
    {
      "inputs": [
        {
          "internalType": "uint256",
          "name": "_requestId",
          "type": "uint256"
        }
      ],
      "name": "checkTransfer",
      "outputs": [],
      "stateMutability": "nonpayable",
      "type": "function"
    },
    {
      "inputs": [],
      "name": "getCurrentUserDetails",
      "outputs": [
        {
          "internalType": "string",
          "name": "",
          "type": "string"
        },
        {
          "internalType": "uint256",
          "name": "",
          "type": "uint256"
        },
        {
          "internalType": "string",
          "name": "",
          "type": "string"
        },
        {
          "internalType": "string",
          "name": "",
          "type": "string"
        },
        {
          "internalType": "string",
          "name": "",
          "type": "string"
        },
        {
          "internalType": "string",
          "name": "",
          "type": "string"
        },
        {
          "internalType": "uint256[]",
          "name": "",
          "type": "uint256[]"
        },
        {
          "internalType": "bool",
          "name": "",
          "type": "bool"
        }
      ],
      "stateMutability": "view",
      "type": "function"
    },
    {
      "inputs": [
        {
          "internalType": "uint256",
          "name": "_landId",
          "type": "uint256"
        }
      ],
      "name": "getLandDetails",
      "outputs": [
        {
          "internalType": "uint256",
          "name": "",
          "type": "uint256"
        },
        {
          "internalType": "uint256",
          "name": "",
          "type": "uint256"
        },
        {
          "internalType": "string",
          "name": "",
          "type": "string"
        },
        {
          "internalType": "string",
          "name": "",
          "type": "string"
        },
        {
          "internalType": "uint256",
          "name": "",
          "type": "uint256"
        },
        {
          "internalType": "string",
          "name": "",
          "type": "string"
        }
      ],
      "stateMutability": "view",
      "type": "function"
    },
    {
      "inputs": [
        {
          "internalType": "uint256",
          "name": "id",
          "type": "uint256"
        }
      ],
      "name": "getLandOwner",
      "outputs": [
        {
          "internalType": "address",
          "name": "",
          "type": "address"
        }
      ],
      "stateMutability": "view",
      "type": "function"
    },
    {
      "inputs": [],
      "name": "getLands",
      "outputs": [
        {
          "components": [
            {
              "internalType": "uint256",
              "name": "landId",
              "type": "uint256"
            },
            {
              "internalType": "uint256",
              "name": "area",
              "type": "uint256"
            },
            {
              "internalType": "string",
              "name": "city",
              "type": "string"
            },
            {
              "internalType": "string",
              "name": "pradesh",
              "type": "string"
            },
            {
              "internalType": "uint256",
              "name": "propertyId",
              "type": "uint256"
            },
            {
              "internalType": "string",
              "name": "document",
              "type": "string"
            }
          ],
          "internalType": "struct LandRegistration.LandDetails[]",
          "name": "",
          "type": "tuple[]"
        }
      ],
      "stateMutability": "view",
      "type": "function"
    },
    {
      "inputs": [],
      "name": "getLandsCount",
      "outputs": [
        {
          "internalType": "uint256",
          "name": "",
          "type": "uint256"
        }
      ],
      "stateMutability": "view",
      "type": "function"
    },
    {
      "inputs": [],
      "name": "getRequestsCount",
      "outputs": [
        {
          "internalType": "uint256",
          "name": "",
          "type": "uint256"
        }
      ],
      "stateMutability": "view",
      "type": "function"
    },
    {
      "inputs": [],
      "name": "getUser",
      "outputs": [
        {
          "internalType": "address[]",
          "name": "",
          "type": "address[]"
        }
      ],
      "stateMutability": "view",
      "type": "function"
    },
    {
      "inputs": [
        {
          "internalType": "address",
          "name": "i",
          "type": "address"
        }
      ],
      "name": "getUserDetails",
      "outputs": [
        {
          "internalType": "string",
          "name": "",
          "type": "string"
        },
        {
          "internalType": "uint256",
          "name": "",
          "type": "uint256"
        },
        {
          "internalType": "string",
          "name": "",
          "type": "string"
        },
        {
          "internalType": "string",
          "name": "",
          "type": "string"
        },
        {
          "internalType": "string",
          "name": "",
          "type": "string"
        },
        {
          "internalType": "string",
          "name": "",
          "type": "string"
        },
        {
          "internalType": "bool",
          "name": "",
          "type": "bool"
        }
      ],
      "stateMutability": "view",
      "type": "function"
    },
    {
      "inputs": [],
      "name": "getUsersCount",
      "outputs": [
        {
          "internalType": "uint256",
          "name": "",
          "type": "uint256"
        }
      ],
      "stateMutability": "view",
      "type": "function"
    },
    {
      "inputs": [
        {
          "internalType": "uint256",
          "name": "id",
          "type": "uint256"
        }
      ],
      "name": "isApproved",
      "outputs": [
        {
          "internalType": "bool",
          "name": "",
          "type": "bool"
        }
      ],
      "stateMutability": "view",
      "type": "function"
    },
    {
      "inputs": [
        {
          "internalType": "address",
          "name": "_id",
          "type": "address"
        }
      ],
      "name": "isLandInspector",
      "outputs": [
        {
          "internalType": "bool",
          "name": "",
          "type": "bool"
        }
      ],
      "stateMutability": "view",
      "type": "function"
    },
    {
      "inputs": [
        {
          "internalType": "uint256",
          "name": "_id",
          "type": "uint256"
        }
      ],
      "name": "isLandVerified",
      "outputs": [
        {
          "internalType": "bool",
          "name": "",
          "type": "bool"
        }
      ],
      "stateMutability": "view",
      "type": "function"
    },
    {
      "inputs": [
        {
          "internalType": "uint256",
          "name": "_landId",
          "type": "uint256"
        }
      ],
      "name": "isPaid",
      "outputs": [
        {
          "internalType": "bool",
          "name": "",
          "type": "bool"
        }
      ],
      "stateMutability": "view",
      "type": "function"
    },
    {
      "inputs": [
        {
          "internalType": "address",
          "name": "i",
          "type": "address"
        }
      ],
      "name": "isRegistered",
      "outputs": [
        {
          "internalType": "bool",
          "name": "",
          "type": "bool"
        }
      ],
      "stateMutability": "view",
      "type": "function"
    },
    {
      "inputs": [
        {
          "internalType": "address",
          "name": "id",
          "type": "address"
        }
      ],
      "name": "isRejected",
      "outputs": [
        {
          "internalType": "bool",
          "name": "",
          "type": "bool"
        }
      ],
      "stateMutability": "view",
      "type": "function"
    },
    {
      "inputs": [
        {
          "internalType": "uint256",
          "name": "id",
          "type": "uint256"
        }
      ],
      "name": "isRequested",
      "outputs": [
        {
          "internalType": "bool",
          "name": "",
          "type": "bool"
        }
      ],
      "stateMutability": "view",
      "type": "function"
    },
    {
      "inputs": [
        {
          "internalType": "address",
          "name": "_id",
          "type": "address"
        }
      ],
      "name": "isUser",
      "outputs": [
        {
          "internalType": "bool",
          "name": "",
          "type": "bool"
        }
      ],
      "stateMutability": "view",
      "type": "function"
    },
    {
      "inputs": [
        {
          "internalType": "address",
          "name": "_id",
          "type": "address"
        }
      ],
      "name": "isVerified",
      "outputs": [
        {
          "internalType": "bool",
          "name": "",
          "type": "bool"
        }
      ],
      "stateMutability": "view",
      "type": "function"
    },
    {
      "inputs": [],
      "name": "landCount",
      "outputs": [
        {
          "internalType": "uint256",
          "name": "",
          "type": "uint256"
        }
      ],
      "stateMutability": "view",
      "type": "function"
    },
    {
      "inputs": [
        {
          "internalType": "address",
          "name": "",
          "type": "address"
        },
        {
          "internalType": "uint256",
          "name": "",
          "type": "uint256"
        }
      ],
      "name": "landOwners",
      "outputs": [
        {
          "internalType": "uint256",
          "name": "landId",
          "type": "uint256"
        },
        {
          "internalType": "uint256",
          "name": "area",
          "type": "uint256"
        },
        {
          "internalType": "string",
          "name": "city",
          "type": "string"
        },
        {
          "internalType": "string",
          "name": "pradesh",
          "type": "string"
        },
        {
          "internalType": "uint256",
          "name": "propertyId",
          "type": "uint256"
        },
        {
          "internalType": "string",
          "name": "document",
          "type": "string"
        }
      ],
      "stateMutability": "view",
      "type": "function"
    },
    {
      "inputs": [
        {
          "internalType": "uint256",
          "name": "",
          "type": "uint256"
        }
      ],
      "name": "lands",
      "outputs": [
        {
          "internalType": "uint256",
          "name": "landId",
          "type": "uint256"
        },
        {
          "internalType": "uint256",
          "name": "area",
          "type": "uint256"
        },
        {
          "internalType": "string",
          "name": "city",
          "type": "string"
        },
        {
          "internalType": "string",
          "name": "pradesh",
          "type": "string"
        },
        {
          "internalType": "uint256",
          "name": "propertyId",
          "type": "uint256"
        },
        {
          "internalType": "string",
          "name": "document",
          "type": "string"
        }
      ],
      "stateMutability": "view",
      "type": "function"
    },
    {
      "inputs": [
        {
          "internalType": "address payable",
          "name": "_receiver",
          "type": "address"
        },
        {
          "internalType": "uint256",
          "name": "_landId",
          "type": "uint256"
        }
      ],
      "name": "payment",
      "outputs": [],
      "stateMutability": "payable",
      "type": "function"
    },
    {
      "inputs": [
        {
          "internalType": "address",
          "name": "_userAddress",
          "type": "address"
        }
      ],
      "name": "rejectUser",
      "outputs": [],
      "stateMutability": "nonpayable",
      "type": "function"
    },
    {
      "inputs": [
        {
          "internalType": "uint256",
          "name": "i",
          "type": "uint256"
        }
      ],
      "name": "requestDetails",
      "outputs": [
        {
          "internalType": "address",
          "name": "",
          "type": "address"
        },
        {
          "internalType": "address",
          "name": "",
          "type": "address"
        },
        {
          "internalType": "uint256",
          "name": "",
          "type": "uint256"
        },
        {
          "internalType": "bool",
          "name": "",
          "type": "bool"
        },
        {
          "internalType": "bool",
          "name": "",
          "type": "bool"
        }
      ],
      "stateMutability": "view",
      "type": "function"
    },
    {
      "inputs": [
        {
          "internalType": "address",
          "name": "_sellerAddress",
          "type": "address"
        },
        {
          "internalType": "uint256",
          "name": "_landId",
          "type": "uint256"
        }
      ],
      "name": "requestLand",
      "outputs": [],
      "stateMutability": "nonpayable",
      "type": "function"
    },
    {
      "inputs": [],
      "name": "requestsCount",
      "outputs": [
        {
          "internalType": "uint256",
          "name": "",
          "type": "uint256"
        }
      ],
      "stateMutability": "view",
      "type": "function"
    },
    {
      "inputs": [
        {
          "internalType": "string",
          "name": "_name",
          "type": "string"
        },
        {
          "internalType": "uint256",
          "name": "_age",
          "type": "uint256"
        },
        {
          "internalType": "string",
          "name": "_city",
          "type": "string"
        },
        {
          "internalType": "string",
          "name": "_citizenshipNumber",
          "type": "string"
        },
        {
          "internalType": "string",
          "name": "_email",
          "type": "string"
        },
        {
          "internalType": "string",
          "name": "_document",
          "type": "string"
        }
      ],
      "name": "updateUser",
      "outputs": [],
      "stateMutability": "nonpayable",
      "type": "function"
    },
    {
      "inputs": [
        {
          "internalType": "uint256",
          "name": "",
          "type": "uint256"
        }
      ],
      "name": "users",
      "outputs": [
        {
          "internalType": "address",
          "name": "",
          "type": "address"
        }
      ],
      "stateMutability": "view",
      "type": "function"
    },
    {
      "inputs": [],
      "name": "usersCount",
      "outputs": [
        {
          "internalType": "uint256",
          "name": "",
          "type": "uint256"
        }
      ],
      "stateMutability": "view",
      "type": "function"
    },
    {
      "inputs": [
        {
          "internalType": "address",
          "name": "",
          "type": "address"
        }
      ],
      "name": "usersMapping",
      "outputs": [
        {
          "internalType": "address",
          "name": "id",
          "type": "address"
        },
        {
          "internalType": "string",
          "name": "name",
          "type": "string"
        },
        {
          "internalType": "uint256",
          "name": "age",
          "type": "uint256"
        },
        {
          "internalType": "string",
          "name": "city",
          "type": "string"
        },
        {
          "internalType": "string",
          "name": "citizenshipNumber",
          "type": "string"
        },
        {
          "internalType": "string",
          "name": "email",
          "type": "string"
        },
        {
          "internalType": "string",
          "name": "document",
          "type": "string"
        },
        {
          "internalType": "bool",
          "name": "exist",
          "type": "bool"
        }
      ],
      "stateMutability": "view",
      "type": "function"
    },
    {
      "inputs": [
        {
          "internalType": "uint256",
          "name": "_landId",
          "type": "uint256"
        }
      ],
      "name": "verifyLand",
      "outputs": [],
      "stateMutability": "nonpayable",
      "type": "function"
    },
    {
      "inputs": [
        {
          "internalType": "address",
          "name": "_userAddress",
          "type": "address"
        }
      ],
      "name": "verifyUser",
      "outputs": [],
      "stateMutability": "nonpayable",
      "type": "function"
    },
    {
      "inputs": [],
      "name": "viewLandRegistrator",
      "outputs": [
        {
          "internalType": "address",
          "name": "",
          "type": "address"
        },
        {
          "internalType": "uint256",
          "name": "",
          "type": "uint256"
        },
        {
          "internalType": "string",
          "name": "",
          "type": "string"
        },
        {
          "internalType": "uint256",
          "name": "",
          "type": "uint256"
        },
        {
          "internalType": "string",
          "name": "",
          "type": "string"
        }
      ],
      "stateMutability": "view",
      "type": "function"
    }
  ],
  "bytecode": "0x60806040523480156200001157600080fd5b5033600f60006101000a81548173ffffffffffffffffffffffffffffffffffffffff021916908373ffffffffffffffffffffffffffffffffffffffff160217905550620000d16040518060400160405280600981526020017f496e73706563746f720000000000000000000000000000000000000000000000815250602d6040518060400160405280600581526020017f61646d696e000000000000000000000000000000000000000000000000000000815250620000d760201b60201c565b620004b9565b60405180608001604052806001815260200184815260200183815260200182815250600160008081526020019081526020016000206000820151816000015560208201518160010190816200012d9190620003d2565b506040820151816002015560608201518160030190816200014f9190620003d2565b50905050505050565b600081519050919050565b7f4e487b7100000000000000000000000000000000000000000000000000000000600052604160045260246000fd5b7f4e487b7100000000000000000000000000000000000000000000000000000000600052602260045260246000fd5b60006002820490506001821680620001da57607f821691505b602082108103620001f057620001ef62000192565b5b50919050565b60008190508160005260206000209050919050565b60006020601f8301049050919050565b600082821b905092915050565b6000600883026200025a7fffffffffffffffffffffffffffffffffffffffffffffffffffffffffffffffff826200021b565b6200026686836200021b565b95508019841693508086168417925050509392505050565b6000819050919050565b6000819050919050565b6000620002b3620002ad620002a7846200027e565b62000288565b6200027e565b9050919050565b6000819050919050565b620002cf8362000292565b620002e7620002de82620002ba565b84845462000228565b825550505050565b600090565b620002fe620002ef565b6200030b818484620002c4565b505050565b5b81811015620003335762000327600082620002f4565b60018101905062000311565b5050565b601f82111562000382576200034c81620001f6565b62000357846200020b565b8101602085101562000367578190505b6200037f62000376856200020b565b83018262000310565b50505b505050565b600082821c905092915050565b6000620003a76000198460080262000387565b1980831691505092915050565b6000620003c2838362000394565b9150826002028217905092915050565b620003dd8262000158565b67ffffffffffffffff811115620003f957620003f862000163565b5b620004058254620001c1565b6200041282828562000337565b600060209050601f8311600181146200044a576000841562000435578287015190505b620004418582620003b4565b865550620004b1565b601f1984166200045a86620001f6565b60005b8281101562000484578489015182556001820191506020850194506020810190506200045d565b86831015620004a45784890151620004a0601f89168262000394565b8355505b6001600288020188555050505b505050505050565b614df780620004c96000396000f3fe6080604052600436106102e45760003560e01c806392817a0f11610190578063d7d1bbdb116100dc578063f03bc43711610095578063f7940bab1161006f578063f7940bab14610cbc578063f9c43bdf14610cfc578063fbfa4b7f14610d25578063fe0cb7dc14610d50576102e4565b8063f03bc43714610c14578063f3f0c21814610c56578063f58f85b514610c7f576102e4565b8063d7d1bbdb14610ada578063de14b4fc14610b03578063debdf28e14610b43578063df78815514610b6c578063e165af8714610b95578063e261f1e514610bd2576102e4565b8063bed403c711610149578063c913b29411610123578063c913b294146109f2578063cc3d967b14610a2f578063cd392a8314610a72578063d7bce65814610aaf576102e4565b8063bed403c71461094b578063c2ba131614610974578063c3c5a547146109b5576102e4565b806392817a0f146107fd5780639dc1bfa91461082c578063a3d911e114610869578063a4a1e263146108a6578063ac8afa8f146108d1578063b9209e331461090e576102e4565b806348a46bd31161024f5780636cbf6cf811610208578063832880e7116101e2578063832880e714610726578063835465011461075157806384c68ea91461078e57806389d21354146107c0576102e4565b80636cbf6cf8146106815780636fe0c906146106be5780637910867b146106e9576102e4565b806348a46bd31461056757806348ab214a146105a45780634d813120146105e85780634dc928851461061157806367a09c231461063a5780636ba13a8214610656576102e4565b806320833c21116102a157806320833c211461041f57806321ed64311461044857806332f2bb14146104855780633410452a146104c2578063365b98b2146104ed5780634209fff11461052a576102e4565b8063155fec72146102e957806316d9d66614610326578063170f3909146103515780631869a38b1461037c5780631a07f76e146103b9578063205b9504146103f6575b600080fd5b3480156102f557600080fd5b50610310600480360381019061030b9190613c81565b610d92565b60405161031d9190613cc9565b60405180910390f35b34801561033257600080fd5b5061033b610dc9565b6040516103489190613cf3565b60405180910390f35b34801561035d57600080fd5b50610366610dd3565b6040516103739190613d4f565b60405180910390f35b34801561038857600080fd5b506103a3600480360381019061039e9190613c81565b610df9565b6040516103b09190613d4f565b60405180910390f35b3480156103c557600080fd5b506103e060048036038101906103db9190613c81565b610e36565b6040516103ed9190613cc9565b60405180910390f35b34801561040257600080fd5b5061041d60048036038101906104189190613eb0565b610e56565b005b34801561042b57600080fd5b5061044660048036038101906104419190613c81565b611124565b005b34801561045457600080fd5b5061046f600480360381019061046a9190613ff5565b611165565b60405161047c9190613cc9565b60405180910390f35b34801561049157600080fd5b506104ac60048036038101906104a79190613ff5565b611185565b6040516104b99190613cc9565b60405180910390f35b3480156104ce57600080fd5b506104d76111a5565b6040516104e49190613cf3565b60405180910390f35b3480156104f957600080fd5b50610514600480360381019061050f9190613c81565b6111af565b6040516105219190613d4f565b60405180910390f35b34801561053657600080fd5b50610551600480360381019061054c9190613ff5565b6111ee565b60405161055e9190613cc9565b60405180910390f35b34801561057357600080fd5b5061058e60048036038101906105899190613ff5565b611251565b60405161059b9190613cc9565b60405180910390f35b3480156105b057600080fd5b506105cb60048036038101906105c69190613ff5565b6112b4565b6040516105df9897969594939291906140a1565b60405180910390f35b3480156105f457600080fd5b5061060f600480360381019061060a9190613ff5565b6115d1565b005b34801561061d57600080fd5b5061063860048036038101906106339190613ff5565b611675565b005b610654600480360381019061064f9190614180565b611719565b005b34801561066257600080fd5b5061066b611790565b6040516106789190613cf3565b60405180910390f35b34801561068d57600080fd5b506106a860048036038101906106a39190613c81565b611796565b6040516106b59190613cc9565b60405180910390f35b3480156106ca57600080fd5b506106d36117cd565b6040516106e09190614372565b60405180910390f35b3480156106f557600080fd5b50610710600480360381019061070b9190613c81565b611a3d565b60405161071d9190613cc9565b60405180910390f35b34801561073257600080fd5b5061073b611a74565b6040516107489190614452565b60405180910390f35b34801561075d57600080fd5b5061077860048036038101906107739190613c81565b611b02565b6040516107859190613cc9565b60405180910390f35b34801561079a57600080fd5b506107a3611b22565b6040516107b7989796959493929190614523565b60405180910390f35b3480156107cc57600080fd5b506107e760048036038101906107e29190613c81565b612077565b6040516107f49190613cc9565b60405180910390f35b34801561080957600080fd5b50610812612097565b6040516108239594939291906145cb565b60405180910390f35b34801561083857600080fd5b50610853600480360381019061084e9190613c81565b612246565b6040516108609190613d4f565b60405180910390f35b34801561087557600080fd5b50610890600480360381019061088b9190613c81565b612279565b60405161089d9190613cc9565b60405180910390f35b3480156108b257600080fd5b506108bb612299565b6040516108c89190613cf3565b60405180910390f35b3480156108dd57600080fd5b506108f860048036038101906108f39190613ff5565b6122a3565b6040516109059190613cc9565b60405180910390f35b34801561091a57600080fd5b5061093560048036038101906109309190613ff5565b6122c3565b6040516109429190613cc9565b60405180910390f35b34801561095757600080fd5b50610972600480360381019061096d919061462c565b612326565b005b34801561098057600080fd5b5061099b60048036038101906109969190613c81565b6124a0565b6040516109ac95949392919061466c565b60405180910390f35b3480156109c157600080fd5b506109dc60048036038101906109d79190613ff5565b612582565b6040516109e99190613cc9565b60405180910390f35b3480156109fe57600080fd5b50610a196004803603810190610a149190613c81565b6125e5565b604051610a269190613cc9565b60405180910390f35b348015610a3b57600080fd5b50610a566004803603810190610a519190613ff5565b612605565b604051610a6997969594939291906146bf565b60405180910390f35b348015610a7e57600080fd5b50610a996004803603810190610a949190613c81565b612ac3565b604051610aa69190613cc9565b60405180910390f35b348015610abb57600080fd5b50610ac4612afa565b604051610ad19190613cf3565b60405180910390f35b348015610ae657600080fd5b50610b016004803603810190610afc9190613c81565b612b00565b005b348015610b0f57600080fd5b50610b2a6004803603810190610b259190613c81565b612b52565b604051610b3a9493929190614751565b60405180910390f35b348015610b4f57600080fd5b50610b6a6004803603810190610b6591906147a4565b612c92565b005b348015610b7857600080fd5b50610b936004803603810190610b8e9190613eb0565b612ed8565b005b348015610ba157600080fd5b50610bbc6004803603810190610bb79190613ff5565b61327a565b604051610bc99190613cc9565b60405180910390f35b348015610bde57600080fd5b50610bf96004803603810190610bf49190613c81565b6132e4565b604051610c0b96959493929190614873565b60405180910390f35b348015610c2057600080fd5b50610c3b6004803603810190610c3691906148e9565b6134b8565b604051610c4d96959493929190614873565b60405180910390f35b348015610c6257600080fd5b50610c7d6004803603810190610c7891906148e9565b6136a9565b005b348015610c8b57600080fd5b50610ca66004803603810190610ca19190613ff5565b6138b2565b604051610cb39190613cc9565b60405180910390f35b348015610cc857600080fd5b50610ce36004803603810190610cde9190613c81565b6138d2565b604051610cf39493929190614929565b60405180910390f35b348015610d0857600080fd5b50610d236004803603810190610d1e9190613c81565b613942565b005b348015610d3157600080fd5b50610d3a613983565b604051610d479190613cf3565b60405180910390f35b348015610d5c57600080fd5b50610d776004803603810190610d729190613c81565b613989565b604051610d8996959493929190614873565b60405180910390f35b6000600d600083815260200190815260200160002060009054906101000a900460ff1615610dc35760019050610dc4565b5b919050565b6000601154905090565b600f60009054906101000a900473ffffffffffffffffffffffffffffffffffffffff1681565b60006003600083815260200190815260200160002060009054906101000a900473ffffffffffffffffffffffffffffffffffffffff169050919050565b600e6020528060005260406000206000915054906101000a900460ff1681565b600a60003373ffffffffffffffffffffffffffffffffffffffff1673ffffffffffffffffffffffffffffffffffffffff16815260200190815260200160002060009054906101000a900460ff168015610f3c57503373ffffffffffffffffffffffffffffffffffffffff16600260003373ffffffffffffffffffffffffffffffffffffffff1673ffffffffffffffffffffffffffffffffffffffff16815260200190815260200160002060000160009054906101000a900473ffffffffffffffffffffffffffffffffffffffff1673ffffffffffffffffffffffffffffffffffffffff16145b610f4557600080fd5b85600260003373ffffffffffffffffffffffffffffffffffffffff1673ffffffffffffffffffffffffffffffffffffffff1681526020019081526020016000206001019081610f949190614b7a565b5084600260003373ffffffffffffffffffffffffffffffffffffffff1673ffffffffffffffffffffffffffffffffffffffff1681526020019081526020016000206002018190555083600260003373ffffffffffffffffffffffffffffffffffffffff1673ffffffffffffffffffffffffffffffffffffffff168152602001908152602001600020600301908161102b9190614b7a565b5082600260003373ffffffffffffffffffffffffffffffffffffffff1673ffffffffffffffffffffffffffffffffffffffff168152602001908152602001600020600401908161107b9190614b7a565b5081600260003373ffffffffffffffffffffffffffffffffffffffff1673ffffffffffffffffffffffffffffffffffffffff16815260200190815260200160002060050190816110cb9190614b7a565b5080600260003373ffffffffffffffffffffffffffffffffffffffff1673ffffffffffffffffffffffffffffffffffffffff168152602001908152602001600020600601908161111b9190614b7a565b50505050505050565b61112d3361327a565b61113657600080fd5b6001600c600083815260200190815260200160002060006101000a81548160ff02191690831515021790555050565b60066020528060005260406000206000915054906101000a900460ff1681565b60096020528060005260406000206000915054906101000a900460ff1681565b6000601354905090565b601081815481106111bf57600080fd5b906000526020600020016000915054906101000a900473ffffffffffffffffffffffffffffffffffffffff1681565b6000600960008373ffffffffffffffffffffffffffffffffffffffff1673ffffffffffffffffffffffffffffffffffffffff16815260200190815260200160002060009054906101000a900460ff161561124b576001905061124c565b5b919050565b6000600760008373ffffffffffffffffffffffffffffffffffffffff1673ffffffffffffffffffffffffffffffffffffffff16815260200190815260200160002060009054906101000a900460ff16156112ae57600190506112af565b5b919050565b60026020528060005260406000206000915090508060000160009054906101000a900473ffffffffffffffffffffffffffffffffffffffff16908060010180546112fd9061499d565b80601f01602080910402602001604051908101604052809291908181526020018280546113299061499d565b80156113765780601f1061134b57610100808354040283529160200191611376565b820191906000526020600020905b81548152906001019060200180831161135957829003601f168201915b5050505050908060020154908060030180546113919061499d565b80601f01602080910402602001604051908101604052809291908181526020018280546113bd9061499d565b801561140a5780601f106113df5761010080835404028352916020019161140a565b820191906000526020600020905b8154815290600101906020018083116113ed57829003601f168201915b50505050509080600401805461141f9061499d565b80601f016020809104026020016040519081016040528092919081815260200182805461144b9061499d565b80156114985780601f1061146d57610100808354040283529160200191611498565b820191906000526020600020905b81548152906001019060200180831161147b57829003601f168201915b5050505050908060050180546114ad9061499d565b80601f01602080910402602001604051908101604052809291908181526020018280546114d99061499d565b80156115265780601f106114fb57610100808354040283529160200191611526565b820191906000526020600020905b81548152906001019060200180831161150957829003601f168201915b50505050509080600601805461153b9061499d565b80601f01602080910402602001604051908101604052809291908181526020018280546115679061499d565b80156115b45780601f10611589576101008083540402835291602001916115b4565b820191906000526020600020905b81548152906001019060200180831161159757829003601f168201915b5050505050908060080160009054906101000a900460ff16905088565b6115da3361327a565b6115e357600080fd5b6001600660008373ffffffffffffffffffffffffffffffffffffffff1673ffffffffffffffffffffffffffffffffffffffff16815260200190815260200160002060006101000a81548160ff0219169083151502179055507f6a6455914f452787eb3985452aceedc1000fb545e394eb3b370e3d08958e0a5b8160405161166a9190613d4f565b60405180910390a150565b61167e3361327a565b61168757600080fd5b6001600760008373ffffffffffffffffffffffffffffffffffffffff1673ffffffffffffffffffffffffffffffffffffffff16815260200190815260200160002060006101000a81548160ff0219169083151502179055507faf77f8960cf590e245ec8b6d41c193a5dcacad8986ae4eb57ac9e5be7b6af0318160405161170e9190613d4f565b60405180910390a150565b6001600e600083815260200190815260200160002060006101000a81548160ff0219169083151502179055508173ffffffffffffffffffffffffffffffffffffffff166108fc349081150290604051600060405180830381858888f1935050505015801561178b573d6000803e3d6000fd5b505050565b60125481565b60006008600083815260200190815260200160002060009054906101000a900460ff16156117c757600190506117c8565b5b919050565b6060600560003373ffffffffffffffffffffffffffffffffffffffff1673ffffffffffffffffffffffffffffffffffffffff168152602001908152602001600020805480602002602001604051908101604052809291908181526020016000905b82821015611a3457838290600052602060002090600602016040518060c001604052908160008201548152602001600182015481526020016002820180546118759061499d565b80601f01602080910402602001604051908101604052809291908181526020018280546118a19061499d565b80156118ee5780601f106118c3576101008083540402835291602001916118ee565b820191906000526020600020905b8154815290600101906020018083116118d157829003601f168201915b505050505081526020016003820180546119079061499d565b80601f01602080910402602001604051908101604052809291908181526020018280546119339061499d565b80156119805780601f1061195557610100808354040283529160200191611980565b820191906000526020600020905b81548152906001019060200180831161196357829003601f168201915b50505050508152602001600482015481526020016005820180546119a39061499d565b80601f01602080910402602001604051908101604052809291908181526020018280546119cf9061499d565b8015611a1c5780601f106119f157610100808354040283529160200191611a1c565b820191906000526020600020905b8154815290600101906020018083116119ff57829003601f168201915b5050505050815250508152602001906001019061182e565b50505050905090565b6000600b600083815260200190815260200160002060009054906101000a900460ff1615611a6e5760019050611a6f565b5b919050565b60606010805480602002602001604051908101604052809291908181526020018280548015611af857602002820191906000526020600020905b8160009054906101000a900473ffffffffffffffffffffffffffffffffffffffff1673ffffffffffffffffffffffffffffffffffffffff1681526020019060010190808311611aae575b5050505050905090565b60086020528060005260406000206000915054906101000a900460ff1681565b6060600060608060608060606000600260003373ffffffffffffffffffffffffffffffffffffffff1673ffffffffffffffffffffffffffffffffffffffff168152602001908152602001600020600101600260003373ffffffffffffffffffffffffffffffffffffffff1673ffffffffffffffffffffffffffffffffffffffff16815260200190815260200160002060020154600260003373ffffffffffffffffffffffffffffffffffffffff1673ffffffffffffffffffffffffffffffffffffffff168152602001908152602001600020600301600260003373ffffffffffffffffffffffffffffffffffffffff1673ffffffffffffffffffffffffffffffffffffffff168152602001908152602001600020600401600260003373ffffffffffffffffffffffffffffffffffffffff1673ffffffffffffffffffffffffffffffffffffffff168152602001908152602001600020600501600260003373ffffffffffffffffffffffffffffffffffffffff1673ffffffffffffffffffffffffffffffffffffffff168152602001908152602001600020600601600260003373ffffffffffffffffffffffffffffffffffffffff1673ffffffffffffffffffffffffffffffffffffffff168152602001908152602001600020600701600260003373ffffffffffffffffffffffffffffffffffffffff1673ffffffffffffffffffffffffffffffffffffffff16815260200190815260200160002060080160009054906101000a900460ff16878054611d5b9061499d565b80601f0160208091040260200160405190810160405280929190818152602001828054611d879061499d565b8015611dd45780601f10611da957610100808354040283529160200191611dd4565b820191906000526020600020905b815481529060010190602001808311611db757829003601f168201915b50505050509750858054611de79061499d565b80601f0160208091040260200160405190810160405280929190818152602001828054611e139061499d565b8015611e605780601f10611e3557610100808354040283529160200191611e60565b820191906000526020600020905b815481529060010190602001808311611e4357829003601f168201915b50505050509550848054611e739061499d565b80601f0160208091040260200160405190810160405280929190818152602001828054611e9f9061499d565b8015611eec5780601f10611ec157610100808354040283529160200191611eec565b820191906000526020600020905b815481529060010190602001808311611ecf57829003601f168201915b50505050509450838054611eff9061499d565b80601f0160208091040260200160405190810160405280929190818152602001828054611f2b9061499d565b8015611f785780601f10611f4d57610100808354040283529160200191611f78565b820191906000526020600020905b815481529060010190602001808311611f5b57829003601f168201915b50505050509350828054611f8b9061499d565b80601f0160208091040260200160405190810160405280929190818152602001828054611fb79061499d565b80156120045780601f10611fd957610100808354040283529160200191612004565b820191906000526020600020905b815481529060010190602001808311611fe757829003601f168201915b505050505092508180548060200260200160405190810160405280929190818152602001828054801561205657602002820191906000526020600020905b815481526020019060010190808311612042575b50505050509150975097509750975097509750975097509091929394959697565b600b6020528060005260406000206000915054906101000a900460ff1681565b600080606060006060600f60009054906101000a900473ffffffffffffffffffffffffffffffffffffffff166001600080815260200190815260200160002060000154600160008081526020019081526020016000206001016001600080815260200190815260200160002060020154600160008081526020019081526020016000206003018280546121299061499d565b80601f01602080910402602001604051908101604052809291908181526020018280546121559061499d565b80156121a25780601f10612177576101008083540402835291602001916121a2565b820191906000526020600020905b81548152906001019060200180831161218557829003601f168201915b505050505092508080546121b59061499d565b80601f01602080910402602001604051908101604052809291908181526020018280546121e19061499d565b801561222e5780601f106122035761010080835404028352916020019161222e565b820191906000526020600020905b81548152906001019060200180831161221157829003601f168201915b50505050509050945094509450945094509091929394565b60036020528060005260406000206000915054906101000a900473ffffffffffffffffffffffffffffffffffffffff1681565b600d6020528060005260406000206000915054906101000a900460ff1681565b6000601254905090565b60076020528060005260406000206000915054906101000a900460ff1681565b6000600660008373ffffffffffffffffffffffffffffffffffffffff1673ffffffffffffffffffffffffffffffffffffffff16815260200190815260200160002060009054906101000a900460ff16156123205760019050612321565b5b919050565b61232f3361327a565b61233857600080fd5b60006003600084815260200190815260200160002060009054906101000a900473ffffffffffffffffffffffffffffffffffffffff169050816003600085815260200190815260200160002060006101000a81548173ffffffffffffffffffffffffffffffffffffffff021916908373ffffffffffffffffffffffffffffffffffffffff160217905550600560008373ffffffffffffffffffffffffffffffffffffffff1673ffffffffffffffffffffffffffffffffffffffff16815260200190815260200160002060008085815260200190815260200160002090806001815401808255809150506001900390600052602060002090600602016000909190919091506000820154816000015560018201548160010155600282018160020190816124649190614c62565b50600382018160030190816124799190614c62565b5060048201548160040155600582018160050190816124989190614c62565b505050505050565b60008060008060006004600087815260200190815260200160002060020160009054906101000a900473ffffffffffffffffffffffffffffffffffffffff166004600088815260200190815260200160002060010160009054906101000a900473ffffffffffffffffffffffffffffffffffffffff166004600089815260200190815260200160002060030154600b60008a815260200190815260200160002060009054906101000a900460ff16600c60008b815260200190815260200160002060009054906101000a900460ff169450945094509450945091939590929450565b6000600960008373ffffffffffffffffffffffffffffffffffffffff1673ffffffffffffffffffffffffffffffffffffffff16815260200190815260200160002060009054906101000a900460ff16156125df57600190506125e0565b5b919050565b600c6020528060005260406000206000915054906101000a900460ff1681565b606060006060806060806000600260008973ffffffffffffffffffffffffffffffffffffffff1673ffffffffffffffffffffffffffffffffffffffff168152602001908152602001600020600101600260008a73ffffffffffffffffffffffffffffffffffffffff1673ffffffffffffffffffffffffffffffffffffffff16815260200190815260200160002060020154600260008b73ffffffffffffffffffffffffffffffffffffffff1673ffffffffffffffffffffffffffffffffffffffff168152602001908152602001600020600301600260008c73ffffffffffffffffffffffffffffffffffffffff1673ffffffffffffffffffffffffffffffffffffffff168152602001908152602001600020600401600260008d73ffffffffffffffffffffffffffffffffffffffff1673ffffffffffffffffffffffffffffffffffffffff168152602001908152602001600020600501600260008e73ffffffffffffffffffffffffffffffffffffffff1673ffffffffffffffffffffffffffffffffffffffff168152602001908152602001600020600601600260008f73ffffffffffffffffffffffffffffffffffffffff1673ffffffffffffffffffffffffffffffffffffffff16815260200190815260200160002060080160009054906101000a900460ff168680546127fa9061499d565b80601f01602080910402602001604051908101604052809291908181526020018280546128269061499d565b80156128735780601f1061284857610100808354040283529160200191612873565b820191906000526020600020905b81548152906001019060200180831161285657829003601f168201915b505050505096508480546128869061499d565b80601f01602080910402602001604051908101604052809291908181526020018280546128b29061499d565b80156128ff5780601f106128d4576101008083540402835291602001916128ff565b820191906000526020600020905b8154815290600101906020018083116128e257829003601f168201915b505050505094508380546129129061499d565b80601f016020809104026020016040519081016040528092919081815260200182805461293e9061499d565b801561298b5780601f106129605761010080835404028352916020019161298b565b820191906000526020600020905b81548152906001019060200180831161296e57829003601f168201915b5050505050935082805461299e9061499d565b80601f01602080910402602001604051908101604052809291908181526020018280546129ca9061499d565b8015612a175780601f106129ec57610100808354040283529160200191612a17565b820191906000526020600020905b8154815290600101906020018083116129fa57829003601f168201915b50505050509250818054612a2a9061499d565b80601f0160208091040260200160405190810160405280929190818152602001828054612a569061499d565b8015612aa35780601f10612a7857610100808354040283529160200191612aa3565b820191906000526020600020905b815481529060010190602001808311612a8657829003601f168201915b505050505091509650965096509650965096509650919395979092949650565b6000600e600083815260200190815260200160002060009054906101000a900460ff1615612af45760019050612af5565b5b919050565b60115481565b612b09336111ee565b8015612b1a5750612b19336122c3565b5b612b2357600080fd5b6001600b600083815260200190815260200160002060006101000a81548160ff02191690831515021790555050565b6001602052806000526040600020600091509050806000015490806001018054612b7b9061499d565b80601f0160208091040260200160405190810160405280929190818152602001828054612ba79061499d565b8015612bf45780601f10612bc957610100808354040283529160200191612bf4565b820191906000526020600020905b815481529060010190602001808311612bd757829003601f168201915b505050505090806002015490806003018054612c0f9061499d565b80601f0160208091040260200160405190810160405280929190818152602001828054612c3b9061499d565b8015612c885780601f10612c5d57610100808354040283529160200191612c88565b820191906000526020600020905b815481529060010190602001808311612c6b57829003601f168201915b5050505050905084565b612c9b336111ee565b8015612cac5750612cab336122c3565b5b612cb557600080fd5b60116000815480929190612cc890614d79565b91905055506040518060c00160405280601154815260200186815260200185815260200184815260200183815260200182815250600080601154815260200190815260200160002060008201518160000155602082015181600101556040820151816002019081612d399190614b7a565b506060820151816003019081612d4f9190614b7a565b506080820151816004015560a0820151816005019081612d6f9190614b7a565b509050503360036000601154815260200190815260200160002060006101000a81548173ffffffffffffffffffffffffffffffffffffffff021916908373ffffffffffffffffffffffffffffffffffffffff160217905550600560003373ffffffffffffffffffffffffffffffffffffffff1673ffffffffffffffffffffffffffffffffffffffff16815260200190815260200160002060008060115481526020019081526020016000209080600181540180825580915050600190039060005260206000209060060201600090919091909150600082015481600001556001820154816001015560028201816002019081612e6b9190614c62565b5060038201816003019081612e809190614c62565b506004820154816004015560058201816005019081612e9f9190614c62565b5050506011547f1683494da6843132b363282b9c61279cdc5f214c099a31557fc4d0eaad2f4d2960405160405180910390a25050505050565b600a60003373ffffffffffffffffffffffffffffffffffffffff1673ffffffffffffffffffffffffffffffffffffffff16815260200190815260200160002060009054906101000a900460ff1615612f2f57600080fd5b6001600a60003373ffffffffffffffffffffffffffffffffffffffff1673ffffffffffffffffffffffffffffffffffffffff16815260200190815260200160002060006101000a81548160ff0219169083151502179055506001600960003373ffffffffffffffffffffffffffffffffffffffff1673ffffffffffffffffffffffffffffffffffffffff16815260200190815260200160002060006101000a81548160ff02191690831515021790555060126000815480929190612ff290614d79565b91905055506040518061012001604052803373ffffffffffffffffffffffffffffffffffffffff168152602001878152602001868152602001858152602001848152602001838152602001828152602001600067ffffffffffffffff81111561305e5761305d613d85565b5b60405190808252806020026020018201604052801561308c5781602001602082028036833780820191505090505b50815260200160011515815250600260003373ffffffffffffffffffffffffffffffffffffffff1673ffffffffffffffffffffffffffffffffffffffff16815260200190815260200160002060008201518160000160006101000a81548173ffffffffffffffffffffffffffffffffffffffff021916908373ffffffffffffffffffffffffffffffffffffffff16021790555060208201518160010190816131349190614b7a565b506040820151816002015560608201518160030190816131549190614b7a565b50608082015181600401908161316a9190614b7a565b5060a08201518160050190816131809190614b7a565b5060c08201518160060190816131969190614b7a565b5060e08201518160070190805190602001906131b3929190613bcd565b506101008201518160080160006101000a81548160ff0219169083151502179055509050506010339080600181540180825580915050600190039060005260206000200160009091909190916101000a81548173ffffffffffffffffffffffffffffffffffffffff021916908373ffffffffffffffffffffffffffffffffffffffff1602179055507f478f5152d8fc568db3f8de9fb402fd9d98a1a7541ecfe434e59cf574fbfc55243360405161326a9190613d4f565b60405180910390a1505050505050565b60008173ffffffffffffffffffffffffffffffffffffffff16600f60009054906101000a900473ffffffffffffffffffffffffffffffffffffffff1673ffffffffffffffffffffffffffffffffffffffff16036132da57600190506132df565b600090505b919050565b60006020528060005260406000206000915090508060000154908060010154908060020180546133139061499d565b80601f016020809104026020016040519081016040528092919081815260200182805461333f9061499d565b801561338c5780601f106133615761010080835404028352916020019161338c565b820191906000526020600020905b81548152906001019060200180831161336f57829003601f168201915b5050505050908060030180546133a19061499d565b80601f01602080910402602001604051908101604052809291908181526020018280546133cd9061499d565b801561341a5780601f106133ef5761010080835404028352916020019161341a565b820191906000526020600020905b8154815290600101906020018083116133fd57829003601f168201915b5050505050908060040154908060050180546134359061499d565b80601f01602080910402602001604051908101604052809291908181526020018280546134619061499d565b80156134ae5780601f10613483576101008083540402835291602001916134ae565b820191906000526020600020905b81548152906001019060200180831161349157829003601f168201915b5050505050905086565b600560205281600052604060002081815481106134d457600080fd5b9060005260206000209060060201600091509150508060000154908060010154908060020180546135049061499d565b80601f01602080910402602001604051908101604052809291908181526020018280546135309061499d565b801561357d5780601f106135525761010080835404028352916020019161357d565b820191906000526020600020905b81548152906001019060200180831161356057829003601f168201915b5050505050908060030180546135929061499d565b80601f01602080910402602001604051908101604052809291908181526020018280546135be9061499d565b801561360b5780601f106135e05761010080835404028352916020019161360b565b820191906000526020600020905b8154815290600101906020018083116135ee57829003601f168201915b5050505050908060040154908060050180546136269061499d565b80601f01602080910402602001604051908101604052809291908181526020018280546136529061499d565b801561369f5780601f106136745761010080835404028352916020019161369f565b820191906000526020600020905b81548152906001019060200180831161368257829003601f168201915b5050505050905086565b6136b2336111ee565b80156136c357506136c2336122c3565b5b6136cc57600080fd5b601360008154809291906136df90614d79565b9190505550604051806080016040528060135481526020013373ffffffffffffffffffffffffffffffffffffffff1681526020018373ffffffffffffffffffffffffffffffffffffffff168152602001828152506004600060135481526020019081526020016000206000820151816000015560208201518160010160006101000a81548173ffffffffffffffffffffffffffffffffffffffff021916908373ffffffffffffffffffffffffffffffffffffffff16021790555060408201518160020160006101000a81548173ffffffffffffffffffffffffffffffffffffffff021916908373ffffffffffffffffffffffffffffffffffffffff160217905550606082015181600301559050506000600b6000601354815260200190815260200160002060006101000a81548160ff0219169083151502179055506001600d6000601354815260200190815260200160002060006101000a81548160ff0219169083151502179055506000600c6000601354815260200190815260200160002060006101000a81548160ff0219169083151502179055507f226be41bcaf9760851410ade1cd6450b48b6b4d0adc46c61ea33b5a37b41bad7826040516138a69190613d4f565b60405180910390a15050565b600a6020528060005260406000206000915054906101000a900460ff1681565b60046020528060005260406000206000915090508060000154908060010160009054906101000a900473ffffffffffffffffffffffffffffffffffffffff16908060020160009054906101000a900473ffffffffffffffffffffffffffffffffffffffff16908060030154905084565b61394b3361327a565b61395457600080fd5b60016008600083815260200190815260200160002060006101000a81548160ff02191690831515021790555050565b60135481565b6000806060806000606060008088815260200190815260200160002060000154600080898152602001908152602001600020600101546000808a81526020019081526020016000206002016000808b81526020019081526020016000206003016000808c8152602001908152602001600020600401546000808d8152602001908152602001600020600501838054613a209061499d565b80601f0160208091040260200160405190810160405280929190818152602001828054613a4c9061499d565b8015613a995780601f10613a6e57610100808354040283529160200191613a99565b820191906000526020600020905b815481529060010190602001808311613a7c57829003601f168201915b50505050509350828054613aac9061499d565b80601f0160208091040260200160405190810160405280929190818152602001828054613ad89061499d565b8015613b255780601f10613afa57610100808354040283529160200191613b25565b820191906000526020600020905b815481529060010190602001808311613b0857829003601f168201915b50505050509250808054613b389061499d565b80601f0160208091040260200160405190810160405280929190818152602001828054613b649061499d565b8015613bb15780601f10613b8657610100808354040283529160200191613bb1565b820191906000526020600020905b815481529060010190602001808311613b9457829003601f168201915b5050505050905095509550955095509550955091939550919395565b828054828255906000526020600020908101928215613c09579160200282015b82811115613c08578251825591602001919060010190613bed565b5b509050613c169190613c1a565b5090565b5b80821115613c33576000816000905550600101613c1b565b5090565b6000604051905090565b600080fd5b600080fd5b6000819050919050565b613c5e81613c4b565b8114613c6957600080fd5b50565b600081359050613c7b81613c55565b92915050565b600060208284031215613c9757613c96613c41565b5b6000613ca584828501613c6c565b91505092915050565b60008115159050919050565b613cc381613cae565b82525050565b6000602082019050613cde6000830184613cba565b92915050565b613ced81613c4b565b82525050565b6000602082019050613d086000830184613ce4565b92915050565b600073ffffffffffffffffffffffffffffffffffffffff82169050919050565b6000613d3982613d0e565b9050919050565b613d4981613d2e565b82525050565b6000602082019050613d646000830184613d40565b92915050565b600080fd5b600080fd5b6000601f19601f8301169050919050565b7f4e487b7100000000000000000000000000000000000000000000000000000000600052604160045260246000fd5b613dbd82613d74565b810181811067ffffffffffffffff82111715613ddc57613ddb613d85565b5b80604052505050565b6000613def613c37565b9050613dfb8282613db4565b919050565b600067ffffffffffffffff821115613e1b57613e1a613d85565b5b613e2482613d74565b9050602081019050919050565b82818337600083830152505050565b6000613e53613e4e84613e00565b613de5565b905082815260208101848484011115613e6f57613e6e613d6f565b5b613e7a848285613e31565b509392505050565b600082601f830112613e9757613e96613d6a565b5b8135613ea7848260208601613e40565b91505092915050565b60008060008060008060c08789031215613ecd57613ecc613c41565b5b600087013567ffffffffffffffff811115613eeb57613eea613c46565b5b613ef789828a01613e82565b9650506020613f0889828a01613c6c565b955050604087013567ffffffffffffffff811115613f2957613f28613c46565b5b613f3589828a01613e82565b945050606087013567ffffffffffffffff811115613f5657613f55613c46565b5b613f6289828a01613e82565b935050608087013567ffffffffffffffff811115613f8357613f82613c46565b5b613f8f89828a01613e82565b92505060a087013567ffffffffffffffff811115613fb057613faf613c46565b5b613fbc89828a01613e82565b9150509295509295509295565b613fd281613d2e565b8114613fdd57600080fd5b50565b600081359050613fef81613fc9565b92915050565b60006020828403121561400b5761400a613c41565b5b600061401984828501613fe0565b91505092915050565b600081519050919050565b600082825260208201905092915050565b60005b8381101561405c578082015181840152602081019050614041565b60008484015250505050565b600061407382614022565b61407d818561402d565b935061408d81856020860161403e565b61409681613d74565b840191505092915050565b6000610100820190506140b7600083018b613d40565b81810360208301526140c9818a614068565b90506140d86040830189613ce4565b81810360608301526140ea8188614068565b905081810360808301526140fe8187614068565b905081810360a08301526141128186614068565b905081810360c08301526141268185614068565b905061413560e0830184613cba565b9998505050505050505050565b600061414d82613d0e565b9050919050565b61415d81614142565b811461416857600080fd5b50565b60008135905061417a81614154565b92915050565b6000806040838503121561419757614196613c41565b5b60006141a58582860161416b565b92505060206141b685828601613c6c565b9150509250929050565b600081519050919050565b600082825260208201905092915050565b6000819050602082019050919050565b6141f581613c4b565b82525050565b600082825260208201905092915050565b600061421782614022565b61422181856141fb565b935061423181856020860161403e565b61423a81613d74565b840191505092915050565b600060c08301600083015161425d60008601826141ec565b50602083015161427060208601826141ec565b5060408301518482036040860152614288828261420c565b915050606083015184820360608601526142a2828261420c565b91505060808301516142b760808601826141ec565b5060a083015184820360a08601526142cf828261420c565b9150508091505092915050565b60006142e88383614245565b905092915050565b6000602082019050919050565b6000614308826141c0565b61431281856141cb565b935083602082028501614324856141dc565b8060005b85811015614360578484038952815161434185826142dc565b945061434c836142f0565b925060208a01995050600181019050614328565b50829750879550505050505092915050565b6000602082019050818103600083015261438c81846142fd565b905092915050565b600081519050919050565b600082825260208201905092915050565b6000819050602082019050919050565b6143c981613d2e565b82525050565b60006143db83836143c0565b60208301905092915050565b6000602082019050919050565b60006143ff82614394565b614409818561439f565b9350614414836143b0565b8060005b8381101561444557815161442c88826143cf565b9750614437836143e7565b925050600181019050614418565b5085935050505092915050565b6000602082019050818103600083015261446c81846143f4565b905092915050565b600081519050919050565b600082825260208201905092915050565b6000819050602082019050919050565b60006144ac83836141ec565b60208301905092915050565b6000602082019050919050565b60006144d082614474565b6144da818561447f565b93506144e583614490565b8060005b838110156145165781516144fd88826144a0565b9750614508836144b8565b9250506001810190506144e9565b5085935050505092915050565b600061010082019050818103600083015261453e818b614068565b905061454d602083018a613ce4565b818103604083015261455f8189614068565b905081810360608301526145738188614068565b905081810360808301526145878187614068565b905081810360a083015261459b8186614068565b905081810360c08301526145af81856144c5565b90506145be60e0830184613cba565b9998505050505050505050565b600060a0820190506145e06000830188613d40565b6145ed6020830187613ce4565b81810360408301526145ff8186614068565b905061460e6060830185613ce4565b81810360808301526146208184614068565b90509695505050505050565b6000806040838503121561464357614642613c41565b5b600061465185828601613c6c565b925050602061466285828601613fe0565b9150509250929050565b600060a0820190506146816000830188613d40565b61468e6020830187613d40565b61469b6040830186613ce4565b6146a86060830185613cba565b6146b56080830184613cba565b9695505050505050565b600060e08201905081810360008301526146d9818a614068565b90506146e86020830189613ce4565b81810360408301526146fa8188614068565b9050818103606083015261470e8187614068565b905081810360808301526147228186614068565b905081810360a08301526147368185614068565b905061474560c0830184613cba565b98975050505050505050565b60006080820190506147666000830187613ce4565b81810360208301526147788186614068565b90506147876040830185613ce4565b81810360608301526147998184614068565b905095945050505050565b600080600080600060a086880312156147c0576147bf613c41565b5b60006147ce88828901613c6c565b955050602086013567ffffffffffffffff8111156147ef576147ee613c46565b5b6147fb88828901613e82565b945050604086013567ffffffffffffffff81111561481c5761481b613c46565b5b61482888828901613e82565b935050606061483988828901613c6c565b925050608086013567ffffffffffffffff81111561485a57614859613c46565b5b61486688828901613e82565b9150509295509295909350565b600060c0820190506148886000830189613ce4565b6148956020830188613ce4565b81810360408301526148a78187614068565b905081810360608301526148bb8186614068565b90506148ca6080830185613ce4565b81810360a08301526148dc8184614068565b9050979650505050505050565b60008060408385031215614900576148ff613c41565b5b600061490e85828601613fe0565b925050602061491f85828601613c6c565b9150509250929050565b600060808201905061493e6000830187613ce4565b61494b6020830186613d40565b6149586040830185613d40565b6149656060830184613ce4565b95945050505050565b7f4e487b7100000000000000000000000000000000000000000000000000000000600052602260045260246000fd5b600060028204905060018216806149b557607f821691505b6020821081036149c8576149c761496e565b5b50919050565b60008190508160005260206000209050919050565b60006020601f8301049050919050565b600082821b905092915050565b600060088302614a307fffffffffffffffffffffffffffffffffffffffffffffffffffffffffffffffff826149f3565b614a3a86836149f3565b95508019841693508086168417925050509392505050565b6000819050919050565b6000614a77614a72614a6d84613c4b565b614a52565b613c4b565b9050919050565b6000819050919050565b614a9183614a5c565b614aa5614a9d82614a7e565b848454614a00565b825550505050565b600090565b614aba614aad565b614ac5818484614a88565b505050565b5b81811015614ae957614ade600082614ab2565b600181019050614acb565b5050565b601f821115614b2e57614aff816149ce565b614b08846149e3565b81016020851015614b17578190505b614b2b614b23856149e3565b830182614aca565b50505b505050565b600082821c905092915050565b6000614b5160001984600802614b33565b1980831691505092915050565b6000614b6a8383614b40565b9150826002028217905092915050565b614b8382614022565b67ffffffffffffffff811115614b9c57614b9b613d85565b5b614ba6825461499d565b614bb1828285614aed565b600060209050601f831160018114614be45760008415614bd2578287015190505b614bdc8582614b5e565b865550614c44565b601f198416614bf2866149ce565b60005b82811015614c1a57848901518255600182019150602085019450602081019050614bf5565b86831015614c375784890151614c33601f891682614b40565b8355505b6001600288020188555050505b505050505050565b600081549050614c5b8161499d565b9050919050565b818103614c70575050614d48565b614c7982614c4c565b67ffffffffffffffff811115614c9257614c91613d85565b5b614c9c825461499d565b614ca7828285614aed565b6000601f831160018114614cd65760008415614cc4578287015490505b614cce8582614b5e565b865550614d41565b601f198416614ce4876149ce565b9650614cef866149ce565b60005b82811015614d1757848901548255600182019150600185019450602081019050614cf2565b86831015614d345784890154614d30601f891682614b40565b8355505b6001600288020188555050505b5050505050505b565b7f4e487b7100000000000000000000000000000000000000000000000000000000600052601160045260246000fd5b6000614d8482613c4b565b91507fffffffffffffffffffffffffffffffffffffffffffffffffffffffffffffffff8203614db657614db5614d4a565b5b60018201905091905056fea2646970667358221220fc6567214ae1fe2fb137ebc3f7b4bd6d7d057f7f0296e6514f8962e1fbe7a6a364736f6c63430008120033",
  "linkReferences": {},
  "deployedLinkReferences": {}
}